{
	"transport.sol": {
		"PotatoTransport": {
			"abi": [
				{
					"inputs": [
						{
							"internalType": "uint256",
							"name": "_orderId",
							"type": "uint256"
						}
					],
					"name": "confirmDelivery",
					"outputs": [],
					"stateMutability": "nonpayable",
					"type": "function"
				},
				{
					"inputs": [
						{
							"internalType": "uint256",
							"name": "_quantity",
							"type": "uint256"
						},
						{
							"internalType": "uint256",
							"name": "_price",
							"type": "uint256"
						},
						{
							"internalType": "uint256",
							"name": "_deliveryTimeline",
							"type": "uint256"
						}
					],
					"name": "createPotatoListing",
					"outputs": [],
					"stateMutability": "nonpayable",
					"type": "function"
				},
				{
					"inputs": [
						{
							"internalType": "uint256",
							"name": "_orderId",
							"type": "uint256"
						}
					],
					"name": "disputeDelivery",
					"outputs": [],
					"stateMutability": "nonpayable",
					"type": "function"
				},
				{
					"inputs": [],
					"name": "orderCount",
					"outputs": [
						{
							"internalType": "uint256",
							"name": "",
							"type": "uint256"
						}
					],
					"stateMutability": "view",
					"type": "function"
				},
				{
					"inputs": [
						{
							"internalType": "uint256",
							"name": "",
							"type": "uint256"
						}
					],
					"name": "orders",
					"outputs": [
						{
							"internalType": "address",
							"name": "buyer",
							"type": "address"
						},
						{
							"internalType": "uint256",
							"name": "potatoListingId",
							"type": "uint256"
						},
						{
							"internalType": "uint256",
							"name": "quantity",
							"type": "uint256"
						},
						{
							"internalType": "uint256",
							"name": "totalPrice",
							"type": "uint256"
						},
						{
							"internalType": "bool",
							"name": "delivered",
							"type": "bool"
						}
					],
					"stateMutability": "view",
					"type": "function"
				},
				{
					"inputs": [
						{
							"internalType": "uint256",
							"name": "_potatoListingId",
							"type": "uint256"
						},
						{
							"internalType": "uint256",
							"name": "_quantity",
							"type": "uint256"
						}
					],
					"name": "placeOrder",
					"outputs": [],
					"stateMutability": "payable",
					"type": "function"
				},
				{
					"inputs": [],
					"name": "potatoListingCount",
					"outputs": [
						{
							"internalType": "uint256",
							"name": "",
							"type": "uint256"
						}
					],
					"stateMutability": "view",
					"type": "function"
				},
				{
					"inputs": [
						{
							"internalType": "uint256",
							"name": "",
							"type": "uint256"
						}
					],
					"name": "potatoListings",
					"outputs": [
						{
							"internalType": "address",
							"name": "farmer",
							"type": "address"
						},
						{
							"internalType": "uint256",
							"name": "quantity",
							"type": "uint256"
						},
						{
							"internalType": "uint256",
							"name": "price",
							"type": "uint256"
						},
						{
							"internalType": "uint256",
							"name": "deliveryTimeline",
							"type": "uint256"
						}
					],
					"stateMutability": "view",
					"type": "function"
				}
			],
			"devdoc": {
				"kind": "dev",
				"methods": {},
				"version": 1
			},
			"evm": {
				"assembly": "    /* \"transport.sol\":60:2321  contract PotatoTransport {... */\n  mstore(0x40, 0x80)\n  callvalue\n  dup1\n  iszero\n  tag_1\n  jumpi\n  0x00\n  dup1\n  revert\ntag_1:\n  pop\n  dataSize(sub_0)\n  dup1\n  dataOffset(sub_0)\n  0x00\n  codecopy\n  0x00\n  return\nstop\n\nsub_0: assembly {\n        /* \"transport.sol\":60:2321  contract PotatoTransport {... */\n      mstore(0x40, 0x80)\n      jumpi(tag_1, lt(calldatasize, 0x04))\n      shr(0xe0, calldataload(0x00))\n      dup1\n      0xa85c38ef\n      gt\n      tag_10\n      jumpi\n      dup1\n      0xa85c38ef\n      eq\n      tag_6\n      jumpi\n      dup1\n      0xadcb9f04\n      eq\n      tag_7\n      jumpi\n      dup1\n      0xf5c529a7\n      eq\n      tag_8\n      jumpi\n      dup1\n      0xfd84cb97\n      eq\n      tag_9\n      jumpi\n      jump(tag_1)\n    tag_10:\n      dup1\n      0x2453ffa8\n      eq\n      tag_2\n      jumpi\n      dup1\n      0x691d5a01\n      eq\n      tag_3\n      jumpi\n      dup1\n      0x843f61e2\n      eq\n      tag_4\n      jumpi\n      dup1\n      0x99c6713b\n      eq\n      tag_5\n      jumpi\n    tag_1:\n      0x00\n      dup1\n      revert\n        /* \"transport.sol\":600:625  uint256 public orderCount */\n    tag_2:\n      callvalue\n      dup1\n      iszero\n      tag_11\n      jumpi\n      0x00\n      dup1\n      revert\n    tag_11:\n      pop\n      tag_12\n      tag_13\n      jump\t// in\n    tag_12:\n      mload(0x40)\n      tag_14\n      swap2\n      swap1\n      tag_15\n      jump\t// in\n    tag_14:\n      mload(0x40)\n      dup1\n      swap2\n      sub\n      swap1\n      return\n        /* \"transport.sol\":323:356  uint256 public potatoListingCount */\n    tag_3:\n      callvalue\n      dup1\n      iszero\n      tag_16\n      jumpi\n      0x00\n      dup1\n      revert\n    tag_16:\n      pop\n      tag_17\n      tag_18\n      jump\t// in\n    tag_17:\n      mload(0x40)\n      tag_19\n      swap2\n      swap1\n      tag_15\n      jump\t// in\n    tag_19:\n      mload(0x40)\n      dup1\n      swap2\n      sub\n      swap1\n      return\n        /* \"transport.sol\":1281:1764  function placeOrder(uint256 _potatoListingId, uint256 _quantity) public payable {... */\n    tag_4:\n      tag_20\n      0x04\n      dup1\n      calldatasize\n      sub\n      dup2\n      add\n      swap1\n      tag_21\n      swap2\n      swap1\n      tag_22\n      jump\t// in\n    tag_21:\n      tag_23\n      jump\t// in\n    tag_20:\n      stop\n        /* \"transport.sol\":261:316  mapping(uint256 => PotatoListing) public potatoListings */\n    tag_5:\n      callvalue\n      dup1\n      iszero\n      tag_24\n      jumpi\n      0x00\n      dup1\n      revert\n    tag_24:\n      pop\n      tag_25\n      0x04\n      dup1\n      calldatasize\n      sub\n      dup2\n      add\n      swap1\n      tag_26\n      swap2\n      swap1\n      tag_27\n      jump\t// in\n    tag_26:\n      tag_28\n      jump\t// in\n    tag_25:\n      mload(0x40)\n      tag_29\n      swap5\n      swap4\n      swap3\n      swap2\n      swap1\n      tag_30\n      jump\t// in\n    tag_29:\n      mload(0x40)\n      dup1\n      swap2\n      sub\n      swap1\n      return\n        /* \"transport.sol\":554:593  mapping(uint256 => Order) public orders */\n    tag_6:\n      callvalue\n      dup1\n      iszero\n      tag_31\n      jumpi\n      0x00\n      dup1\n      revert\n    tag_31:\n      pop\n      tag_32\n      0x04\n      dup1\n      calldatasize\n      sub\n      dup2\n      add\n      swap1\n      tag_33\n      swap2\n      swap1\n      tag_27\n      jump\t// in\n    tag_33:\n      tag_34\n      jump\t// in\n    tag_32:\n      mload(0x40)\n      tag_35\n      swap6\n      swap5\n      swap4\n      swap3\n      swap2\n      swap1\n      tag_36\n      jump\t// in\n    tag_35:\n      mload(0x40)\n      dup1\n      swap2\n      sub\n      swap1\n      return\n        /* \"transport.sol\":2102:2318  function disputeDelivery(uint256 _orderId) public onlyBuyer(_orderId) {... */\n    tag_7:\n      callvalue\n      dup1\n      iszero\n      tag_37\n      jumpi\n      0x00\n      dup1\n      revert\n    tag_37:\n      pop\n      tag_38\n      0x04\n      dup1\n      calldatasize\n      sub\n      dup2\n      add\n      swap1\n      tag_39\n      swap2\n      swap1\n      tag_27\n      jump\t// in\n    tag_39:\n      tag_40\n      jump\t// in\n    tag_38:\n      stop\n        /* \"transport.sol\":1025:1273  function createPotatoListing(uint256 _quantity, uint256 _price, uint256 _deliveryTimeline) public {... */\n    tag_8:\n      callvalue\n      dup1\n      iszero\n      tag_41\n      jumpi\n      0x00\n      dup1\n      revert\n    tag_41:\n      pop\n      tag_42\n      0x04\n      dup1\n      calldatasize\n      sub\n      dup2\n      add\n      swap1\n      tag_43\n      swap2\n      swap1\n      tag_44\n      jump\t// in\n    tag_43:\n      tag_45\n      jump\t// in\n    tag_42:\n      stop\n        /* \"transport.sol\":1772:2094  function confirmDelivery(uint256 _orderId) public onlyBuyer(_orderId) {... */\n    tag_9:\n      callvalue\n      dup1\n      iszero\n      tag_46\n      jumpi\n      0x00\n      dup1\n      revert\n    tag_46:\n      pop\n      tag_47\n      0x04\n      dup1\n      calldatasize\n      sub\n      dup2\n      add\n      swap1\n      tag_48\n      swap2\n      swap1\n      tag_27\n      jump\t// in\n    tag_48:\n      tag_49\n      jump\t// in\n    tag_47:\n      stop\n        /* \"transport.sol\":600:625  uint256 public orderCount */\n    tag_13:\n      sload(0x03)\n      dup2\n      jump\t// out\n        /* \"transport.sol\":323:356  uint256 public potatoListingCount */\n    tag_18:\n      sload(0x01)\n      dup2\n      jump\t// out\n        /* \"transport.sol\":1281:1764  function placeOrder(uint256 _potatoListingId, uint256 _quantity) public payable {... */\n    tag_23:\n        /* \"transport.sol\":1393:1407  potatoListings */\n      0x00\n        /* \"transport.sol\":1393:1425  potatoListings[_potatoListingId] */\n      dup1\n        /* \"transport.sol\":1408:1424  _potatoListingId */\n      dup4\n        /* \"transport.sol\":1393:1425  potatoListings[_potatoListingId] */\n      dup2\n      mstore\n      0x20\n      add\n      swap1\n      dup2\n      mstore\n      0x20\n      add\n      0x00\n      keccak256\n        /* \"transport.sol\":1393:1434  potatoListings[_potatoListingId].quantity */\n      0x01\n      add\n      sload\n        /* \"transport.sol\":1380:1389  _quantity */\n      dup2\n        /* \"transport.sol\":1380:1434  _quantity <= potatoListings[_potatoListingId].quantity */\n      gt\n      iszero\n        /* \"transport.sol\":1372:1486  require(_quantity <= potatoListings[_potatoListingId].quantity, \"Requested quantity exceeds available inventory.\") */\n      tag_51\n      jumpi\n      mload(0x40)\n      0x08c379a000000000000000000000000000000000000000000000000000000000\n      dup2\n      mstore\n      0x04\n      add\n      tag_52\n      swap1\n      tag_53\n      jump\t// in\n    tag_52:\n      mload(0x40)\n      dup1\n      swap2\n      sub\n      swap1\n      revert\n    tag_51:\n        /* \"transport.sol\":1559:1568  _quantity */\n      dup1\n        /* \"transport.sol\":1518:1532  potatoListings */\n      0x00\n        /* \"transport.sol\":1518:1550  potatoListings[_potatoListingId] */\n      dup1\n        /* \"transport.sol\":1533:1549  _potatoListingId */\n      dup5\n        /* \"transport.sol\":1518:1550  potatoListings[_potatoListingId] */\n      dup2\n      mstore\n      0x20\n      add\n      swap1\n      dup2\n      mstore\n      0x20\n      add\n      0x00\n      keccak256\n        /* \"transport.sol\":1518:1556  potatoListings[_potatoListingId].price */\n      0x02\n      add\n      sload\n        /* \"transport.sol\":1518:1568  potatoListings[_potatoListingId].price * _quantity */\n      tag_54\n      swap2\n      swap1\n      tag_55\n      jump\t// in\n    tag_54:\n        /* \"transport.sol\":1505:1514  msg.value */\n      callvalue\n        /* \"transport.sol\":1505:1568  msg.value >= potatoListings[_potatoListingId].price * _quantity */\n      lt\n      iszero\n        /* \"transport.sol\":1497:1594  require(msg.value >= potatoListings[_potatoListingId].price * _quantity, \"Insufficient payment.\") */\n      tag_56\n      jumpi\n      mload(0x40)\n      0x08c379a000000000000000000000000000000000000000000000000000000000\n      dup2\n      mstore\n      0x04\n      add\n      tag_57\n      swap1\n      tag_58\n      jump\t// in\n    tag_57:\n      mload(0x40)\n      dup1\n      swap2\n      sub\n      swap1\n      revert\n    tag_56:\n        /* \"transport.sol\":1628:1733  Order(msg.sender, _potatoListingId, _quantity, potatoListings[_potatoListingId].price * _quantity, false) */\n      mload(0x40)\n      dup1\n      0xa0\n      add\n      0x40\n      mstore\n      dup1\n        /* \"transport.sol\":1634:1644  msg.sender */\n      caller\n        /* \"transport.sol\":1628:1733  Order(msg.sender, _potatoListingId, _quantity, potatoListings[_potatoListingId].price * _quantity, false) */\n      0xffffffffffffffffffffffffffffffffffffffff\n      and\n      dup2\n      mstore\n      0x20\n      add\n        /* \"transport.sol\":1646:1662  _potatoListingId */\n      dup4\n        /* \"transport.sol\":1628:1733  Order(msg.sender, _potatoListingId, _quantity, potatoListings[_potatoListingId].price * _quantity, false) */\n      dup2\n      mstore\n      0x20\n      add\n        /* \"transport.sol\":1664:1673  _quantity */\n      dup3\n        /* \"transport.sol\":1628:1733  Order(msg.sender, _potatoListingId, _quantity, potatoListings[_potatoListingId].price * _quantity, false) */\n      dup2\n      mstore\n      0x20\n      add\n        /* \"transport.sol\":1716:1725  _quantity */\n      dup3\n        /* \"transport.sol\":1675:1689  potatoListings */\n      0x00\n        /* \"transport.sol\":1675:1707  potatoListings[_potatoListingId] */\n      dup1\n        /* \"transport.sol\":1690:1706  _potatoListingId */\n      dup7\n        /* \"transport.sol\":1675:1707  potatoListings[_potatoListingId] */\n      dup2\n      mstore\n      0x20\n      add\n      swap1\n      dup2\n      mstore\n      0x20\n      add\n      0x00\n      keccak256\n        /* \"transport.sol\":1675:1713  potatoListings[_potatoListingId].price */\n      0x02\n      add\n      sload\n        /* \"transport.sol\":1675:1725  potatoListings[_potatoListingId].price * _quantity */\n      tag_59\n      swap2\n      swap1\n      tag_55\n      jump\t// in\n    tag_59:\n        /* \"transport.sol\":1628:1733  Order(msg.sender, _potatoListingId, _quantity, potatoListings[_potatoListingId].price * _quantity, false) */\n      dup2\n      mstore\n      0x20\n      add\n        /* \"transport.sol\":1727:1732  false */\n      0x00\n        /* \"transport.sol\":1628:1733  Order(msg.sender, _potatoListingId, _quantity, potatoListings[_potatoListingId].price * _quantity, false) */\n      iszero\n      iszero\n      dup2\n      mstore\n      pop\n        /* \"transport.sol\":1607:1613  orders */\n      0x02\n        /* \"transport.sol\":1607:1625  orders[orderCount] */\n      0x00\n        /* \"transport.sol\":1614:1624  orderCount */\n      sload(0x03)\n        /* \"transport.sol\":1607:1625  orders[orderCount] */\n      dup2\n      mstore\n      0x20\n      add\n      swap1\n      dup2\n      mstore\n      0x20\n      add\n      0x00\n      keccak256\n        /* \"transport.sol\":1607:1733  orders[orderCount] = Order(msg.sender, _potatoListingId, _quantity, potatoListings[_potatoListingId].price * _quantity, false) */\n      0x00\n      dup3\n      add\n      mload\n      dup2\n      0x00\n      add\n      exp(0x0100, 0x00)\n      dup2\n      sload\n      dup2\n      0xffffffffffffffffffffffffffffffffffffffff\n      mul\n      not\n      and\n      swap1\n      dup4\n      0xffffffffffffffffffffffffffffffffffffffff\n      and\n      mul\n      or\n      swap1\n      sstore\n      pop\n      0x20\n      dup3\n      add\n      mload\n      dup2\n      0x01\n      add\n      sstore\n      0x40\n      dup3\n      add\n      mload\n      dup2\n      0x02\n      add\n      sstore\n      0x60\n      dup3\n      add\n      mload\n      dup2\n      0x03\n      add\n      sstore\n      0x80\n      dup3\n      add\n      mload\n      dup2\n      0x04\n      add\n      exp(0x0100, 0x00)\n      dup2\n      sload\n      dup2\n      0xff\n      mul\n      not\n      and\n      swap1\n      dup4\n      iszero\n      iszero\n      mul\n      or\n      swap1\n      sstore\n      pop\n      swap1\n      pop\n      pop\n        /* \"transport.sol\":1744:1754  orderCount */\n      0x03\n      0x00\n        /* \"transport.sol\":1744:1756  orderCount++ */\n      dup2\n      sload\n      dup1\n      swap3\n      swap2\n      swap1\n      tag_60\n      swap1\n      tag_61\n      jump\t// in\n    tag_60:\n      swap2\n      swap1\n      pop\n      sstore\n      pop\n        /* \"transport.sol\":1281:1764  function placeOrder(uint256 _potatoListingId, uint256 _quantity) public payable {... */\n      pop\n      pop\n      jump\t// out\n        /* \"transport.sol\":261:316  mapping(uint256 => PotatoListing) public potatoListings */\n    tag_28:\n      mstore(0x20, 0x00)\n      dup1\n      0x00\n      mstore\n      keccak256(0x00, 0x40)\n      0x00\n      swap2\n      pop\n      swap1\n      pop\n      dup1\n      0x00\n      add\n      0x00\n      swap1\n      sload\n      swap1\n      0x0100\n      exp\n      swap1\n      div\n      0xffffffffffffffffffffffffffffffffffffffff\n      and\n      swap1\n      dup1\n      0x01\n      add\n      sload\n      swap1\n      dup1\n      0x02\n      add\n      sload\n      swap1\n      dup1\n      0x03\n      add\n      sload\n      swap1\n      pop\n      dup5\n      jump\t// out\n        /* \"transport.sol\":554:593  mapping(uint256 => Order) public orders */\n    tag_34:\n      mstore(0x20, 0x02)\n      dup1\n      0x00\n      mstore\n      keccak256(0x00, 0x40)\n      0x00\n      swap2\n      pop\n      swap1\n      pop\n      dup1\n      0x00\n      add\n      0x00\n      swap1\n      sload\n      swap1\n      0x0100\n      exp\n      swap1\n      div\n      0xffffffffffffffffffffffffffffffffffffffff\n      and\n      swap1\n      dup1\n      0x01\n      add\n      sload\n      swap1\n      dup1\n      0x02\n      add\n      sload\n      swap1\n      dup1\n      0x03\n      add\n      sload\n      swap1\n      dup1\n      0x04\n      add\n      0x00\n      swap1\n      sload\n      swap1\n      0x0100\n      exp\n      swap1\n      div\n      0xff\n      and\n      swap1\n      pop\n      dup6\n      jump\t// out\n        /* \"transport.sol\":2102:2318  function disputeDelivery(uint256 _orderId) public onlyBuyer(_orderId) {... */\n    tag_40:\n        /* \"transport.sol\":2162:2170  _orderId */\n      dup1\n        /* \"transport.sol\":913:919  orders */\n      0x02\n        /* \"transport.sol\":913:929  orders[_orderId] */\n      0x00\n        /* \"transport.sol\":920:928  _orderId */\n      dup3\n        /* \"transport.sol\":913:929  orders[_orderId] */\n      dup2\n      mstore\n      0x20\n      add\n      swap1\n      dup2\n      mstore\n      0x20\n      add\n      0x00\n      keccak256\n        /* \"transport.sol\":913:935  orders[_orderId].buyer */\n      0x00\n      add\n      0x00\n      swap1\n      sload\n      swap1\n      0x0100\n      exp\n      swap1\n      div\n      0xffffffffffffffffffffffffffffffffffffffff\n      and\n        /* \"transport.sol\":899:935  msg.sender == orders[_orderId].buyer */\n      0xffffffffffffffffffffffffffffffffffffffff\n      and\n        /* \"transport.sol\":899:909  msg.sender */\n      caller\n        /* \"transport.sol\":899:935  msg.sender == orders[_orderId].buyer */\n      0xffffffffffffffffffffffffffffffffffffffff\n      and\n      eq\n        /* \"transport.sol\":891:979  require(msg.sender == orders[_orderId].buyer, \"Only the buyer can perform this action.\") */\n      tag_63\n      jumpi\n      mload(0x40)\n      0x08c379a000000000000000000000000000000000000000000000000000000000\n      dup2\n      mstore\n      0x04\n      add\n      tag_64\n      swap1\n      tag_65\n      jump\t// in\n    tag_64:\n      mload(0x40)\n      dup1\n      swap2\n      sub\n      swap1\n      revert\n    tag_63:\n        /* \"transport.sol\":2191:2197  orders */\n      0x02\n        /* \"transport.sol\":2191:2207  orders[_orderId] */\n      0x00\n        /* \"transport.sol\":2198:2206  _orderId */\n      dup4\n        /* \"transport.sol\":2191:2207  orders[_orderId] */\n      dup2\n      mstore\n      0x20\n      add\n      swap1\n      dup2\n      mstore\n      0x20\n      add\n      0x00\n      keccak256\n        /* \"transport.sol\":2191:2217  orders[_orderId].delivered */\n      0x04\n      add\n      0x00\n      swap1\n      sload\n      swap1\n      0x0100\n      exp\n      swap1\n      div\n      0xff\n      and\n        /* \"transport.sol\":2183:2258  require(orders[_orderId].delivered, \"Delivery has not been confirmed yet.\") */\n      tag_67\n      jumpi\n      mload(0x40)\n      0x08c379a000000000000000000000000000000000000000000000000000000000\n      dup2\n      mstore\n      0x04\n      add\n      tag_68\n      swap1\n      tag_69\n      jump\t// in\n    tag_68:\n      mload(0x40)\n      dup1\n      swap2\n      sub\n      swap1\n      revert\n    tag_67:\n        /* \"transport.sol\":2102:2318  function disputeDelivery(uint256 _orderId) public onlyBuyer(_orderId) {... */\n      pop\n      pop\n      jump\t// out\n        /* \"transport.sol\":1025:1273  function createPotatoListing(uint256 _quantity, uint256 _price, uint256 _deliveryTimeline) public {... */\n    tag_45:\n        /* \"transport.sol\":1171:1234  PotatoListing(msg.sender, _quantity, _price, _deliveryTimeline) */\n      mload(0x40)\n      dup1\n      0x80\n      add\n      0x40\n      mstore\n      dup1\n        /* \"transport.sol\":1185:1195  msg.sender */\n      caller\n        /* \"transport.sol\":1171:1234  PotatoListing(msg.sender, _quantity, _price, _deliveryTimeline) */\n      0xffffffffffffffffffffffffffffffffffffffff\n      and\n      dup2\n      mstore\n      0x20\n      add\n        /* \"transport.sol\":1197:1206  _quantity */\n      dup5\n        /* \"transport.sol\":1171:1234  PotatoListing(msg.sender, _quantity, _price, _deliveryTimeline) */\n      dup2\n      mstore\n      0x20\n      add\n        /* \"transport.sol\":1208:1214  _price */\n      dup4\n        /* \"transport.sol\":1171:1234  PotatoListing(msg.sender, _quantity, _price, _deliveryTimeline) */\n      dup2\n      mstore\n      0x20\n      add\n        /* \"transport.sol\":1216:1233  _deliveryTimeline */\n      dup3\n        /* \"transport.sol\":1171:1234  PotatoListing(msg.sender, _quantity, _price, _deliveryTimeline) */\n      dup2\n      mstore\n      pop\n        /* \"transport.sol\":1134:1148  potatoListings */\n      0x00\n        /* \"transport.sol\":1134:1168  potatoListings[potatoListingCount] */\n      dup1\n        /* \"transport.sol\":1149:1167  potatoListingCount */\n      sload(0x01)\n        /* \"transport.sol\":1134:1168  potatoListings[potatoListingCount] */\n      dup2\n      mstore\n      0x20\n      add\n      swap1\n      dup2\n      mstore\n      0x20\n      add\n      0x00\n      keccak256\n        /* \"transport.sol\":1134:1234  potatoListings[potatoListingCount] = PotatoListing(msg.sender, _quantity, _price, _deliveryTimeline) */\n      0x00\n      dup3\n      add\n      mload\n      dup2\n      0x00\n      add\n      exp(0x0100, 0x00)\n      dup2\n      sload\n      dup2\n      0xffffffffffffffffffffffffffffffffffffffff\n      mul\n      not\n      and\n      swap1\n      dup4\n      0xffffffffffffffffffffffffffffffffffffffff\n      and\n      mul\n      or\n      swap1\n      sstore\n      pop\n      0x20\n      dup3\n      add\n      mload\n      dup2\n      0x01\n      add\n      sstore\n      0x40\n      dup3\n      add\n      mload\n      dup2\n      0x02\n      add\n      sstore\n      0x60\n      dup3\n      add\n      mload\n      dup2\n      0x03\n      add\n      sstore\n      swap1\n      pop\n      pop\n        /* \"transport.sol\":1245:1263  potatoListingCount */\n      0x01\n      0x00\n        /* \"transport.sol\":1245:1265  potatoListingCount++ */\n      dup2\n      sload\n      dup1\n      swap3\n      swap2\n      swap1\n      tag_71\n      swap1\n      tag_61\n      jump\t// in\n    tag_71:\n      swap2\n      swap1\n      pop\n      sstore\n      pop\n        /* \"transport.sol\":1025:1273  function createPotatoListing(uint256 _quantity, uint256 _price, uint256 _deliveryTimeline) public {... */\n      pop\n      pop\n      pop\n      jump\t// out\n        /* \"transport.sol\":1772:2094  function confirmDelivery(uint256 _orderId) public onlyBuyer(_orderId) {... */\n    tag_49:\n        /* \"transport.sol\":1832:1840  _orderId */\n      dup1\n        /* \"transport.sol\":913:919  orders */\n      0x02\n        /* \"transport.sol\":913:929  orders[_orderId] */\n      0x00\n        /* \"transport.sol\":920:928  _orderId */\n      dup3\n        /* \"transport.sol\":913:929  orders[_orderId] */\n      dup2\n      mstore\n      0x20\n      add\n      swap1\n      dup2\n      mstore\n      0x20\n      add\n      0x00\n      keccak256\n        /* \"transport.sol\":913:935  orders[_orderId].buyer */\n      0x00\n      add\n      0x00\n      swap1\n      sload\n      swap1\n      0x0100\n      exp\n      swap1\n      div\n      0xffffffffffffffffffffffffffffffffffffffff\n      and\n        /* \"transport.sol\":899:935  msg.sender == orders[_orderId].buyer */\n      0xffffffffffffffffffffffffffffffffffffffff\n      and\n        /* \"transport.sol\":899:909  msg.sender */\n      caller\n        /* \"transport.sol\":899:935  msg.sender == orders[_orderId].buyer */\n      0xffffffffffffffffffffffffffffffffffffffff\n      and\n      eq\n        /* \"transport.sol\":891:979  require(msg.sender == orders[_orderId].buyer, \"Only the buyer can perform this action.\") */\n      tag_73\n      jumpi\n      mload(0x40)\n      0x08c379a000000000000000000000000000000000000000000000000000000000\n      dup2\n      mstore\n      0x04\n      add\n      tag_74\n      swap1\n      tag_65\n      jump\t// in\n    tag_74:\n      mload(0x40)\n      dup1\n      swap2\n      sub\n      swap1\n      revert\n    tag_73:\n        /* \"transport.sol\":1862:1868  orders */\n      0x02\n        /* \"transport.sol\":1862:1878  orders[_orderId] */\n      0x00\n        /* \"transport.sol\":1869:1877  _orderId */\n      dup4\n        /* \"transport.sol\":1862:1878  orders[_orderId] */\n      dup2\n      mstore\n      0x20\n      add\n      swap1\n      dup2\n      mstore\n      0x20\n      add\n      0x00\n      keccak256\n        /* \"transport.sol\":1862:1888  orders[_orderId].delivered */\n      0x04\n      add\n      0x00\n      swap1\n      sload\n      swap1\n      0x0100\n      exp\n      swap1\n      div\n      0xff\n      and\n        /* \"transport.sol\":1861:1888  !orders[_orderId].delivered */\n      iszero\n        /* \"transport.sol\":1853:1929  require(!orders[_orderId].delivered, \"Delivery has already been confirmed.\") */\n      tag_76\n      jumpi\n      mload(0x40)\n      0x08c379a000000000000000000000000000000000000000000000000000000000\n      dup2\n      mstore\n      0x04\n      add\n      tag_77\n      swap1\n      tag_78\n      jump\t// in\n    tag_77:\n      mload(0x40)\n      dup1\n      swap2\n      sub\n      swap1\n      revert\n    tag_76:\n        /* \"transport.sol\":1969:1973  true */\n      0x01\n        /* \"transport.sol\":1940:1946  orders */\n      0x02\n        /* \"transport.sol\":1940:1956  orders[_orderId] */\n      0x00\n        /* \"transport.sol\":1947:1955  _orderId */\n      dup5\n        /* \"transport.sol\":1940:1956  orders[_orderId] */\n      dup2\n      mstore\n      0x20\n      add\n      swap1\n      dup2\n      mstore\n      0x20\n      add\n      0x00\n      keccak256\n        /* \"transport.sol\":1940:1966  orders[_orderId].delivered */\n      0x04\n      add\n      0x00\n        /* \"transport.sol\":1940:1973  orders[_orderId].delivered = true */\n      0x0100\n      exp\n      dup2\n      sload\n      dup2\n      0xff\n      mul\n      not\n      and\n      swap1\n      dup4\n      iszero\n      iszero\n      mul\n      or\n      swap1\n      sstore\n      pop\n        /* \"transport.sol\":1992:2006  potatoListings */\n      0x00\n        /* \"transport.sol\":1992:2040  potatoListings[orders[_orderId].potatoListingId] */\n      dup1\n        /* \"transport.sol\":2007:2013  orders */\n      0x02\n        /* \"transport.sol\":2007:2023  orders[_orderId] */\n      0x00\n        /* \"transport.sol\":2014:2022  _orderId */\n      dup6\n        /* \"transport.sol\":2007:2023  orders[_orderId] */\n      dup2\n      mstore\n      0x20\n      add\n      swap1\n      dup2\n      mstore\n      0x20\n      add\n      0x00\n      keccak256\n        /* \"transport.sol\":2007:2039  orders[_orderId].potatoListingId */\n      0x01\n      add\n      sload\n        /* \"transport.sol\":1992:2040  potatoListings[orders[_orderId].potatoListingId] */\n      dup2\n      mstore\n      0x20\n      add\n      swap1\n      dup2\n      mstore\n      0x20\n      add\n      0x00\n      keccak256\n        /* \"transport.sol\":1992:2047  potatoListings[orders[_orderId].potatoListingId].farmer */\n      0x00\n      add\n      0x00\n      swap1\n      sload\n      swap1\n      0x0100\n      exp\n      swap1\n      div\n      0xffffffffffffffffffffffffffffffffffffffff\n      and\n        /* \"transport.sol\":1984:2057  payable(potatoListings[orders[_orderId].potatoListingId].farmer).transfer */\n      0xffffffffffffffffffffffffffffffffffffffff\n      and\n        /* \"transport.sol\":1984:2086  payable(potatoListings[orders[_orderId].potatoListingId].farmer).transfer(orders[_orderId].totalPrice) */\n      0x08fc\n        /* \"transport.sol\":2058:2064  orders */\n      0x02\n        /* \"transport.sol\":2058:2074  orders[_orderId] */\n      0x00\n        /* \"transport.sol\":2065:2073  _orderId */\n      dup6\n        /* \"transport.sol\":2058:2074  orders[_orderId] */\n      dup2\n      mstore\n      0x20\n      add\n      swap1\n      dup2\n      mstore\n      0x20\n      add\n      0x00\n      keccak256\n        /* \"transport.sol\":2058:2085  orders[_orderId].totalPrice */\n      0x03\n      add\n      sload\n        /* \"transport.sol\":1984:2086  payable(potatoListings[orders[_orderId].potatoListingId].farmer).transfer(orders[_orderId].totalPrice) */\n      swap1\n      dup2\n      iszero\n      mul\n      swap1\n      mload(0x40)\n      0x00\n      mload(0x40)\n      dup1\n      dup4\n      sub\n      dup2\n      dup6\n      dup9\n      dup9\n      call\n      swap4\n      pop\n      pop\n      pop\n      pop\n      iszero\n      dup1\n      iszero\n      tag_80\n      jumpi\n      returndatasize\n      0x00\n      dup1\n      returndatacopy\n      revert(0x00, returndatasize)\n    tag_80:\n      pop\n        /* \"transport.sol\":1772:2094  function confirmDelivery(uint256 _orderId) public onlyBuyer(_orderId) {... */\n      pop\n      pop\n      jump\t// out\n        /* \"#utility.yul\":7:84   */\n    tag_81:\n        /* \"#utility.yul\":44:51   */\n      0x00\n        /* \"#utility.yul\":73:78   */\n      dup2\n        /* \"#utility.yul\":62:78   */\n      swap1\n      pop\n        /* \"#utility.yul\":7:84   */\n      swap2\n      swap1\n      pop\n      jump\t// out\n        /* \"#utility.yul\":90:208   */\n    tag_82:\n        /* \"#utility.yul\":177:201   */\n      tag_108\n        /* \"#utility.yul\":195:200   */\n      dup2\n        /* \"#utility.yul\":177:201   */\n      tag_81\n      jump\t// in\n    tag_108:\n        /* \"#utility.yul\":172:175   */\n      dup3\n        /* \"#utility.yul\":165:202   */\n      mstore\n        /* \"#utility.yul\":90:208   */\n      pop\n      pop\n      jump\t// out\n        /* \"#utility.yul\":214:436   */\n    tag_15:\n        /* \"#utility.yul\":307:311   */\n      0x00\n        /* \"#utility.yul\":345:347   */\n      0x20\n        /* \"#utility.yul\":334:343   */\n      dup3\n        /* \"#utility.yul\":330:348   */\n      add\n        /* \"#utility.yul\":322:348   */\n      swap1\n      pop\n        /* \"#utility.yul\":358:429   */\n      tag_110\n        /* \"#utility.yul\":426:427   */\n      0x00\n        /* \"#utility.yul\":415:424   */\n      dup4\n        /* \"#utility.yul\":411:428   */\n      add\n        /* \"#utility.yul\":402:408   */\n      dup5\n        /* \"#utility.yul\":358:429   */\n      tag_82\n      jump\t// in\n    tag_110:\n        /* \"#utility.yul\":214:436   */\n      swap3\n      swap2\n      pop\n      pop\n      jump\t// out\n        /* \"#utility.yul\":523:640   */\n    tag_84:\n        /* \"#utility.yul\":632:633   */\n      0x00\n        /* \"#utility.yul\":629:630   */\n      dup1\n        /* \"#utility.yul\":622:634   */\n      revert\n        /* \"#utility.yul\":769:891   */\n    tag_86:\n        /* \"#utility.yul\":842:866   */\n      tag_115\n        /* \"#utility.yul\":860:865   */\n      dup2\n        /* \"#utility.yul\":842:866   */\n      tag_81\n      jump\t// in\n    tag_115:\n        /* \"#utility.yul\":835:840   */\n      dup2\n        /* \"#utility.yul\":832:867   */\n      eq\n        /* \"#utility.yul\":822:885   */\n      tag_116\n      jumpi\n        /* \"#utility.yul\":881:882   */\n      0x00\n        /* \"#utility.yul\":878:879   */\n      dup1\n        /* \"#utility.yul\":871:883   */\n      revert\n        /* \"#utility.yul\":822:885   */\n    tag_116:\n        /* \"#utility.yul\":769:891   */\n      pop\n      jump\t// out\n        /* \"#utility.yul\":897:1036   */\n    tag_87:\n        /* \"#utility.yul\":943:948   */\n      0x00\n        /* \"#utility.yul\":981:987   */\n      dup2\n        /* \"#utility.yul\":968:988   */\n      calldataload\n        /* \"#utility.yul\":959:988   */\n      swap1\n      pop\n        /* \"#utility.yul\":997:1030   */\n      tag_118\n        /* \"#utility.yul\":1024:1029   */\n      dup2\n        /* \"#utility.yul\":997:1030   */\n      tag_86\n      jump\t// in\n    tag_118:\n        /* \"#utility.yul\":897:1036   */\n      swap3\n      swap2\n      pop\n      pop\n      jump\t// out\n        /* \"#utility.yul\":1042:1516   */\n    tag_22:\n        /* \"#utility.yul\":1110:1116   */\n      0x00\n        /* \"#utility.yul\":1118:1124   */\n      dup1\n        /* \"#utility.yul\":1167:1169   */\n      0x40\n        /* \"#utility.yul\":1155:1164   */\n      dup4\n        /* \"#utility.yul\":1146:1153   */\n      dup6\n        /* \"#utility.yul\":1142:1165   */\n      sub\n        /* \"#utility.yul\":1138:1170   */\n      slt\n        /* \"#utility.yul\":1135:1254   */\n      iszero\n      tag_120\n      jumpi\n        /* \"#utility.yul\":1173:1252   */\n      tag_121\n      tag_84\n      jump\t// in\n    tag_121:\n        /* \"#utility.yul\":1135:1254   */\n    tag_120:\n        /* \"#utility.yul\":1293:1294   */\n      0x00\n        /* \"#utility.yul\":1318:1371   */\n      tag_122\n        /* \"#utility.yul\":1363:1370   */\n      dup6\n        /* \"#utility.yul\":1354:1360   */\n      dup3\n        /* \"#utility.yul\":1343:1352   */\n      dup7\n        /* \"#utility.yul\":1339:1361   */\n      add\n        /* \"#utility.yul\":1318:1371   */\n      tag_87\n      jump\t// in\n    tag_122:\n        /* \"#utility.yul\":1308:1371   */\n      swap3\n      pop\n        /* \"#utility.yul\":1264:1381   */\n      pop\n        /* \"#utility.yul\":1420:1422   */\n      0x20\n        /* \"#utility.yul\":1446:1499   */\n      tag_123\n        /* \"#utility.yul\":1491:1498   */\n      dup6\n        /* \"#utility.yul\":1482:1488   */\n      dup3\n        /* \"#utility.yul\":1471:1480   */\n      dup7\n        /* \"#utility.yul\":1467:1489   */\n      add\n        /* \"#utility.yul\":1446:1499   */\n      tag_87\n      jump\t// in\n    tag_123:\n        /* \"#utility.yul\":1436:1499   */\n      swap2\n      pop\n        /* \"#utility.yul\":1391:1509   */\n      pop\n        /* \"#utility.yul\":1042:1516   */\n      swap3\n      pop\n      swap3\n      swap1\n      pop\n      jump\t// out\n        /* \"#utility.yul\":1522:1851   */\n    tag_27:\n        /* \"#utility.yul\":1581:1587   */\n      0x00\n        /* \"#utility.yul\":1630:1632   */\n      0x20\n        /* \"#utility.yul\":1618:1627   */\n      dup3\n        /* \"#utility.yul\":1609:1616   */\n      dup5\n        /* \"#utility.yul\":1605:1628   */\n      sub\n        /* \"#utility.yul\":1601:1633   */\n      slt\n        /* \"#utility.yul\":1598:1717   */\n      iszero\n      tag_125\n      jumpi\n        /* \"#utility.yul\":1636:1715   */\n      tag_126\n      tag_84\n      jump\t// in\n    tag_126:\n        /* \"#utility.yul\":1598:1717   */\n    tag_125:\n        /* \"#utility.yul\":1756:1757   */\n      0x00\n        /* \"#utility.yul\":1781:1834   */\n      tag_127\n        /* \"#utility.yul\":1826:1833   */\n      dup5\n        /* \"#utility.yul\":1817:1823   */\n      dup3\n        /* \"#utility.yul\":1806:1815   */\n      dup6\n        /* \"#utility.yul\":1802:1824   */\n      add\n        /* \"#utility.yul\":1781:1834   */\n      tag_87\n      jump\t// in\n    tag_127:\n        /* \"#utility.yul\":1771:1834   */\n      swap2\n      pop\n        /* \"#utility.yul\":1727:1844   */\n      pop\n        /* \"#utility.yul\":1522:1851   */\n      swap3\n      swap2\n      pop\n      pop\n      jump\t// out\n        /* \"#utility.yul\":1857:1983   */\n    tag_88:\n        /* \"#utility.yul\":1894:1901   */\n      0x00\n        /* \"#utility.yul\":1934:1976   */\n      0xffffffffffffffffffffffffffffffffffffffff\n        /* \"#utility.yul\":1927:1932   */\n      dup3\n        /* \"#utility.yul\":1923:1977   */\n      and\n        /* \"#utility.yul\":1912:1977   */\n      swap1\n      pop\n        /* \"#utility.yul\":1857:1983   */\n      swap2\n      swap1\n      pop\n      jump\t// out\n        /* \"#utility.yul\":1989:2085   */\n    tag_89:\n        /* \"#utility.yul\":2026:2033   */\n      0x00\n        /* \"#utility.yul\":2055:2079   */\n      tag_130\n        /* \"#utility.yul\":2073:2078   */\n      dup3\n        /* \"#utility.yul\":2055:2079   */\n      tag_88\n      jump\t// in\n    tag_130:\n        /* \"#utility.yul\":2044:2079   */\n      swap1\n      pop\n        /* \"#utility.yul\":1989:2085   */\n      swap2\n      swap1\n      pop\n      jump\t// out\n        /* \"#utility.yul\":2091:2209   */\n    tag_90:\n        /* \"#utility.yul\":2178:2202   */\n      tag_132\n        /* \"#utility.yul\":2196:2201   */\n      dup2\n        /* \"#utility.yul\":2178:2202   */\n      tag_89\n      jump\t// in\n    tag_132:\n        /* \"#utility.yul\":2173:2176   */\n      dup3\n        /* \"#utility.yul\":2166:2203   */\n      mstore\n        /* \"#utility.yul\":2091:2209   */\n      pop\n      pop\n      jump\t// out\n        /* \"#utility.yul\":2215:2768   */\n    tag_30:\n        /* \"#utility.yul\":2392:2396   */\n      0x00\n        /* \"#utility.yul\":2430:2433   */\n      0x80\n        /* \"#utility.yul\":2419:2428   */\n      dup3\n        /* \"#utility.yul\":2415:2434   */\n      add\n        /* \"#utility.yul\":2407:2434   */\n      swap1\n      pop\n        /* \"#utility.yul\":2444:2515   */\n      tag_134\n        /* \"#utility.yul\":2512:2513   */\n      0x00\n        /* \"#utility.yul\":2501:2510   */\n      dup4\n        /* \"#utility.yul\":2497:2514   */\n      add\n        /* \"#utility.yul\":2488:2494   */\n      dup8\n        /* \"#utility.yul\":2444:2515   */\n      tag_90\n      jump\t// in\n    tag_134:\n        /* \"#utility.yul\":2525:2597   */\n      tag_135\n        /* \"#utility.yul\":2593:2595   */\n      0x20\n        /* \"#utility.yul\":2582:2591   */\n      dup4\n        /* \"#utility.yul\":2578:2596   */\n      add\n        /* \"#utility.yul\":2569:2575   */\n      dup7\n        /* \"#utility.yul\":2525:2597   */\n      tag_82\n      jump\t// in\n    tag_135:\n        /* \"#utility.yul\":2607:2679   */\n      tag_136\n        /* \"#utility.yul\":2675:2677   */\n      0x40\n        /* \"#utility.yul\":2664:2673   */\n      dup4\n        /* \"#utility.yul\":2660:2678   */\n      add\n        /* \"#utility.yul\":2651:2657   */\n      dup6\n        /* \"#utility.yul\":2607:2679   */\n      tag_82\n      jump\t// in\n    tag_136:\n        /* \"#utility.yul\":2689:2761   */\n      tag_137\n        /* \"#utility.yul\":2757:2759   */\n      0x60\n        /* \"#utility.yul\":2746:2755   */\n      dup4\n        /* \"#utility.yul\":2742:2760   */\n      add\n        /* \"#utility.yul\":2733:2739   */\n      dup5\n        /* \"#utility.yul\":2689:2761   */\n      tag_82\n      jump\t// in\n    tag_137:\n        /* \"#utility.yul\":2215:2768   */\n      swap6\n      swap5\n      pop\n      pop\n      pop\n      pop\n      pop\n      jump\t// out\n        /* \"#utility.yul\":2774:2864   */\n    tag_91:\n        /* \"#utility.yul\":2808:2815   */\n      0x00\n        /* \"#utility.yul\":2851:2856   */\n      dup2\n        /* \"#utility.yul\":2844:2857   */\n      iszero\n        /* \"#utility.yul\":2837:2858   */\n      iszero\n        /* \"#utility.yul\":2826:2858   */\n      swap1\n      pop\n        /* \"#utility.yul\":2774:2864   */\n      swap2\n      swap1\n      pop\n      jump\t// out\n        /* \"#utility.yul\":2870:2979   */\n    tag_92:\n        /* \"#utility.yul\":2951:2972   */\n      tag_140\n        /* \"#utility.yul\":2966:2971   */\n      dup2\n        /* \"#utility.yul\":2951:2972   */\n      tag_91\n      jump\t// in\n    tag_140:\n        /* \"#utility.yul\":2946:2949   */\n      dup3\n        /* \"#utility.yul\":2939:2973   */\n      mstore\n        /* \"#utility.yul\":2870:2979   */\n      pop\n      pop\n      jump\t// out\n        /* \"#utility.yul\":2985:3637   */\n    tag_36:\n        /* \"#utility.yul\":3184:3188   */\n      0x00\n        /* \"#utility.yul\":3222:3225   */\n      0xa0\n        /* \"#utility.yul\":3211:3220   */\n      dup3\n        /* \"#utility.yul\":3207:3226   */\n      add\n        /* \"#utility.yul\":3199:3226   */\n      swap1\n      pop\n        /* \"#utility.yul\":3236:3307   */\n      tag_142\n        /* \"#utility.yul\":3304:3305   */\n      0x00\n        /* \"#utility.yul\":3293:3302   */\n      dup4\n        /* \"#utility.yul\":3289:3306   */\n      add\n        /* \"#utility.yul\":3280:3286   */\n      dup9\n        /* \"#utility.yul\":3236:3307   */\n      tag_90\n      jump\t// in\n    tag_142:\n        /* \"#utility.yul\":3317:3389   */\n      tag_143\n        /* \"#utility.yul\":3385:3387   */\n      0x20\n        /* \"#utility.yul\":3374:3383   */\n      dup4\n        /* \"#utility.yul\":3370:3388   */\n      add\n        /* \"#utility.yul\":3361:3367   */\n      dup8\n        /* \"#utility.yul\":3317:3389   */\n      tag_82\n      jump\t// in\n    tag_143:\n        /* \"#utility.yul\":3399:3471   */\n      tag_144\n        /* \"#utility.yul\":3467:3469   */\n      0x40\n        /* \"#utility.yul\":3456:3465   */\n      dup4\n        /* \"#utility.yul\":3452:3470   */\n      add\n        /* \"#utility.yul\":3443:3449   */\n      dup7\n        /* \"#utility.yul\":3399:3471   */\n      tag_82\n      jump\t// in\n    tag_144:\n        /* \"#utility.yul\":3481:3553   */\n      tag_145\n        /* \"#utility.yul\":3549:3551   */\n      0x60\n        /* \"#utility.yul\":3538:3547   */\n      dup4\n        /* \"#utility.yul\":3534:3552   */\n      add\n        /* \"#utility.yul\":3525:3531   */\n      dup6\n        /* \"#utility.yul\":3481:3553   */\n      tag_82\n      jump\t// in\n    tag_145:\n        /* \"#utility.yul\":3563:3630   */\n      tag_146\n        /* \"#utility.yul\":3625:3628   */\n      0x80\n        /* \"#utility.yul\":3614:3623   */\n      dup4\n        /* \"#utility.yul\":3610:3629   */\n      add\n        /* \"#utility.yul\":3601:3607   */\n      dup5\n        /* \"#utility.yul\":3563:3630   */\n      tag_92\n      jump\t// in\n    tag_146:\n        /* \"#utility.yul\":2985:3637   */\n      swap7\n      swap6\n      pop\n      pop\n      pop\n      pop\n      pop\n      pop\n      jump\t// out\n        /* \"#utility.yul\":3643:4262   */\n    tag_44:\n        /* \"#utility.yul\":3720:3726   */\n      0x00\n        /* \"#utility.yul\":3728:3734   */\n      dup1\n        /* \"#utility.yul\":3736:3742   */\n      0x00\n        /* \"#utility.yul\":3785:3787   */\n      0x60\n        /* \"#utility.yul\":3773:3782   */\n      dup5\n        /* \"#utility.yul\":3764:3771   */\n      dup7\n        /* \"#utility.yul\":3760:3783   */\n      sub\n        /* \"#utility.yul\":3756:3788   */\n      slt\n        /* \"#utility.yul\":3753:3872   */\n      iszero\n      tag_148\n      jumpi\n        /* \"#utility.yul\":3791:3870   */\n      tag_149\n      tag_84\n      jump\t// in\n    tag_149:\n        /* \"#utility.yul\":3753:3872   */\n    tag_148:\n        /* \"#utility.yul\":3911:3912   */\n      0x00\n        /* \"#utility.yul\":3936:3989   */\n      tag_150\n        /* \"#utility.yul\":3981:3988   */\n      dup7\n        /* \"#utility.yul\":3972:3978   */\n      dup3\n        /* \"#utility.yul\":3961:3970   */\n      dup8\n        /* \"#utility.yul\":3957:3979   */\n      add\n        /* \"#utility.yul\":3936:3989   */\n      tag_87\n      jump\t// in\n    tag_150:\n        /* \"#utility.yul\":3926:3989   */\n      swap4\n      pop\n        /* \"#utility.yul\":3882:3999   */\n      pop\n        /* \"#utility.yul\":4038:4040   */\n      0x20\n        /* \"#utility.yul\":4064:4117   */\n      tag_151\n        /* \"#utility.yul\":4109:4116   */\n      dup7\n        /* \"#utility.yul\":4100:4106   */\n      dup3\n        /* \"#utility.yul\":4089:4098   */\n      dup8\n        /* \"#utility.yul\":4085:4107   */\n      add\n        /* \"#utility.yul\":4064:4117   */\n      tag_87\n      jump\t// in\n    tag_151:\n        /* \"#utility.yul\":4054:4117   */\n      swap3\n      pop\n        /* \"#utility.yul\":4009:4127   */\n      pop\n        /* \"#utility.yul\":4166:4168   */\n      0x40\n        /* \"#utility.yul\":4192:4245   */\n      tag_152\n        /* \"#utility.yul\":4237:4244   */\n      dup7\n        /* \"#utility.yul\":4228:4234   */\n      dup3\n        /* \"#utility.yul\":4217:4226   */\n      dup8\n        /* \"#utility.yul\":4213:4235   */\n      add\n        /* \"#utility.yul\":4192:4245   */\n      tag_87\n      jump\t// in\n    tag_152:\n        /* \"#utility.yul\":4182:4245   */\n      swap2\n      pop\n        /* \"#utility.yul\":4137:4255   */\n      pop\n        /* \"#utility.yul\":3643:4262   */\n      swap3\n      pop\n      swap3\n      pop\n      swap3\n      jump\t// out\n        /* \"#utility.yul\":4268:4437   */\n    tag_93:\n        /* \"#utility.yul\":4352:4363   */\n      0x00\n        /* \"#utility.yul\":4386:4392   */\n      dup3\n        /* \"#utility.yul\":4381:4384   */\n      dup3\n        /* \"#utility.yul\":4374:4393   */\n      mstore\n        /* \"#utility.yul\":4426:4430   */\n      0x20\n        /* \"#utility.yul\":4421:4424   */\n      dup3\n        /* \"#utility.yul\":4417:4431   */\n      add\n        /* \"#utility.yul\":4402:4431   */\n      swap1\n      pop\n        /* \"#utility.yul\":4268:4437   */\n      swap3\n      swap2\n      pop\n      pop\n      jump\t// out\n        /* \"#utility.yul\":4443:4677   */\n    tag_94:\n        /* \"#utility.yul\":4583:4617   */\n      0x526571756573746564207175616e74697479206578636565647320617661696c\n        /* \"#utility.yul\":4579:4580   */\n      0x00\n        /* \"#utility.yul\":4571:4577   */\n      dup3\n        /* \"#utility.yul\":4567:4581   */\n      add\n        /* \"#utility.yul\":4560:4618   */\n      mstore\n        /* \"#utility.yul\":4652:4669   */\n      0x61626c6520696e76656e746f72792e0000000000000000000000000000000000\n        /* \"#utility.yul\":4647:4649   */\n      0x20\n        /* \"#utility.yul\":4639:4645   */\n      dup3\n        /* \"#utility.yul\":4635:4650   */\n      add\n        /* \"#utility.yul\":4628:4670   */\n      mstore\n        /* \"#utility.yul\":4443:4677   */\n      pop\n      jump\t// out\n        /* \"#utility.yul\":4683:5049   */\n    tag_95:\n        /* \"#utility.yul\":4825:4828   */\n      0x00\n        /* \"#utility.yul\":4846:4913   */\n      tag_156\n        /* \"#utility.yul\":4910:4912   */\n      0x2f\n        /* \"#utility.yul\":4905:4908   */\n      dup4\n        /* \"#utility.yul\":4846:4913   */\n      tag_93\n      jump\t// in\n    tag_156:\n        /* \"#utility.yul\":4839:4913   */\n      swap2\n      pop\n        /* \"#utility.yul\":4922:5015   */\n      tag_157\n        /* \"#utility.yul\":5011:5014   */\n      dup3\n        /* \"#utility.yul\":4922:5015   */\n      tag_94\n      jump\t// in\n    tag_157:\n        /* \"#utility.yul\":5040:5042   */\n      0x40\n        /* \"#utility.yul\":5035:5038   */\n      dup3\n        /* \"#utility.yul\":5031:5043   */\n      add\n        /* \"#utility.yul\":5024:5043   */\n      swap1\n      pop\n        /* \"#utility.yul\":4683:5049   */\n      swap2\n      swap1\n      pop\n      jump\t// out\n        /* \"#utility.yul\":5055:5474   */\n    tag_53:\n        /* \"#utility.yul\":5221:5225   */\n      0x00\n        /* \"#utility.yul\":5259:5261   */\n      0x20\n        /* \"#utility.yul\":5248:5257   */\n      dup3\n        /* \"#utility.yul\":5244:5262   */\n      add\n        /* \"#utility.yul\":5236:5262   */\n      swap1\n      pop\n        /* \"#utility.yul\":5308:5317   */\n      dup2\n        /* \"#utility.yul\":5302:5306   */\n      dup2\n        /* \"#utility.yul\":5298:5318   */\n      sub\n        /* \"#utility.yul\":5294:5295   */\n      0x00\n        /* \"#utility.yul\":5283:5292   */\n      dup4\n        /* \"#utility.yul\":5279:5296   */\n      add\n        /* \"#utility.yul\":5272:5319   */\n      mstore\n        /* \"#utility.yul\":5336:5467   */\n      tag_159\n        /* \"#utility.yul\":5462:5466   */\n      dup2\n        /* \"#utility.yul\":5336:5467   */\n      tag_95\n      jump\t// in\n    tag_159:\n        /* \"#utility.yul\":5328:5467   */\n      swap1\n      pop\n        /* \"#utility.yul\":5055:5474   */\n      swap2\n      swap1\n      pop\n      jump\t// out\n        /* \"#utility.yul\":5480:5660   */\n    tag_96:\n        /* \"#utility.yul\":5528:5605   */\n      0x4e487b7100000000000000000000000000000000000000000000000000000000\n        /* \"#utility.yul\":5525:5526   */\n      0x00\n        /* \"#utility.yul\":5518:5606   */\n      mstore\n        /* \"#utility.yul\":5625:5629   */\n      0x11\n        /* \"#utility.yul\":5622:5623   */\n      0x04\n        /* \"#utility.yul\":5615:5630   */\n      mstore\n        /* \"#utility.yul\":5649:5653   */\n      0x24\n        /* \"#utility.yul\":5646:5647   */\n      0x00\n        /* \"#utility.yul\":5639:5654   */\n      revert\n        /* \"#utility.yul\":5666:6076   */\n    tag_55:\n        /* \"#utility.yul\":5706:5713   */\n      0x00\n        /* \"#utility.yul\":5729:5749   */\n      tag_162\n        /* \"#utility.yul\":5747:5748   */\n      dup3\n        /* \"#utility.yul\":5729:5749   */\n      tag_81\n      jump\t// in\n    tag_162:\n        /* \"#utility.yul\":5724:5749   */\n      swap2\n      pop\n        /* \"#utility.yul\":5763:5783   */\n      tag_163\n        /* \"#utility.yul\":5781:5782   */\n      dup4\n        /* \"#utility.yul\":5763:5783   */\n      tag_81\n      jump\t// in\n    tag_163:\n        /* \"#utility.yul\":5758:5783   */\n      swap3\n      pop\n        /* \"#utility.yul\":5818:5819   */\n      dup3\n        /* \"#utility.yul\":5815:5816   */\n      dup3\n        /* \"#utility.yul\":5811:5820   */\n      mul\n        /* \"#utility.yul\":5840:5870   */\n      tag_164\n        /* \"#utility.yul\":5858:5869   */\n      dup2\n        /* \"#utility.yul\":5840:5870   */\n      tag_81\n      jump\t// in\n    tag_164:\n        /* \"#utility.yul\":5829:5870   */\n      swap2\n      pop\n        /* \"#utility.yul\":6019:6020   */\n      dup3\n        /* \"#utility.yul\":6010:6017   */\n      dup3\n        /* \"#utility.yul\":6006:6021   */\n      div\n        /* \"#utility.yul\":6003:6004   */\n      dup5\n        /* \"#utility.yul\":6000:6022   */\n      eq\n        /* \"#utility.yul\":5980:5981   */\n      dup4\n        /* \"#utility.yul\":5973:5982   */\n      iszero\n        /* \"#utility.yul\":5953:6036   */\n      or\n        /* \"#utility.yul\":5930:6069   */\n      tag_165\n      jumpi\n        /* \"#utility.yul\":6049:6067   */\n      tag_166\n      tag_96\n      jump\t// in\n    tag_166:\n        /* \"#utility.yul\":5930:6069   */\n    tag_165:\n        /* \"#utility.yul\":5714:6076   */\n      pop\n        /* \"#utility.yul\":5666:6076   */\n      swap3\n      swap2\n      pop\n      pop\n      jump\t// out\n        /* \"#utility.yul\":6082:6253   */\n    tag_97:\n        /* \"#utility.yul\":6222:6245   */\n      0x496e73756666696369656e74207061796d656e742e0000000000000000000000\n        /* \"#utility.yul\":6218:6219   */\n      0x00\n        /* \"#utility.yul\":6210:6216   */\n      dup3\n        /* \"#utility.yul\":6206:6220   */\n      add\n        /* \"#utility.yul\":6199:6246   */\n      mstore\n        /* \"#utility.yul\":6082:6253   */\n      pop\n      jump\t// out\n        /* \"#utility.yul\":6259:6625   */\n    tag_98:\n        /* \"#utility.yul\":6401:6404   */\n      0x00\n        /* \"#utility.yul\":6422:6489   */\n      tag_169\n        /* \"#utility.yul\":6486:6488   */\n      0x15\n        /* \"#utility.yul\":6481:6484   */\n      dup4\n        /* \"#utility.yul\":6422:6489   */\n      tag_93\n      jump\t// in\n    tag_169:\n        /* \"#utility.yul\":6415:6489   */\n      swap2\n      pop\n        /* \"#utility.yul\":6498:6591   */\n      tag_170\n        /* \"#utility.yul\":6587:6590   */\n      dup3\n        /* \"#utility.yul\":6498:6591   */\n      tag_97\n      jump\t// in\n    tag_170:\n        /* \"#utility.yul\":6616:6618   */\n      0x20\n        /* \"#utility.yul\":6611:6614   */\n      dup3\n        /* \"#utility.yul\":6607:6619   */\n      add\n        /* \"#utility.yul\":6600:6619   */\n      swap1\n      pop\n        /* \"#utility.yul\":6259:6625   */\n      swap2\n      swap1\n      pop\n      jump\t// out\n        /* \"#utility.yul\":6631:7050   */\n    tag_58:\n        /* \"#utility.yul\":6797:6801   */\n      0x00\n        /* \"#utility.yul\":6835:6837   */\n      0x20\n        /* \"#utility.yul\":6824:6833   */\n      dup3\n        /* \"#utility.yul\":6820:6838   */\n      add\n        /* \"#utility.yul\":6812:6838   */\n      swap1\n      pop\n        /* \"#utility.yul\":6884:6893   */\n      dup2\n        /* \"#utility.yul\":6878:6882   */\n      dup2\n        /* \"#utility.yul\":6874:6894   */\n      sub\n        /* \"#utility.yul\":6870:6871   */\n      0x00\n        /* \"#utility.yul\":6859:6868   */\n      dup4\n        /* \"#utility.yul\":6855:6872   */\n      add\n        /* \"#utility.yul\":6848:6895   */\n      mstore\n        /* \"#utility.yul\":6912:7043   */\n      tag_172\n        /* \"#utility.yul\":7038:7042   */\n      dup2\n        /* \"#utility.yul\":6912:7043   */\n      tag_98\n      jump\t// in\n    tag_172:\n        /* \"#utility.yul\":6904:7043   */\n      swap1\n      pop\n        /* \"#utility.yul\":6631:7050   */\n      swap2\n      swap1\n      pop\n      jump\t// out\n        /* \"#utility.yul\":7056:7289   */\n    tag_61:\n        /* \"#utility.yul\":7095:7098   */\n      0x00\n        /* \"#utility.yul\":7118:7142   */\n      tag_174\n        /* \"#utility.yul\":7136:7141   */\n      dup3\n        /* \"#utility.yul\":7118:7142   */\n      tag_81\n      jump\t// in\n    tag_174:\n        /* \"#utility.yul\":7109:7142   */\n      swap2\n      pop\n        /* \"#utility.yul\":7164:7230   */\n      0xffffffffffffffffffffffffffffffffffffffffffffffffffffffffffffffff\n        /* \"#utility.yul\":7157:7162   */\n      dup3\n        /* \"#utility.yul\":7154:7231   */\n      sub\n        /* \"#utility.yul\":7151:7254   */\n      tag_175\n      jumpi\n        /* \"#utility.yul\":7234:7252   */\n      tag_176\n      tag_96\n      jump\t// in\n    tag_176:\n        /* \"#utility.yul\":7151:7254   */\n    tag_175:\n        /* \"#utility.yul\":7281:7282   */\n      0x01\n        /* \"#utility.yul\":7274:7279   */\n      dup3\n        /* \"#utility.yul\":7270:7283   */\n      add\n        /* \"#utility.yul\":7263:7283   */\n      swap1\n      pop\n        /* \"#utility.yul\":7056:7289   */\n      swap2\n      swap1\n      pop\n      jump\t// out\n        /* \"#utility.yul\":7295:7521   */\n    tag_99:\n        /* \"#utility.yul\":7435:7469   */\n      0x4f6e6c79207468652062757965722063616e20706572666f726d207468697320\n        /* \"#utility.yul\":7431:7432   */\n      0x00\n        /* \"#utility.yul\":7423:7429   */\n      dup3\n        /* \"#utility.yul\":7419:7433   */\n      add\n        /* \"#utility.yul\":7412:7470   */\n      mstore\n        /* \"#utility.yul\":7504:7513   */\n      0x616374696f6e2e00000000000000000000000000000000000000000000000000\n        /* \"#utility.yul\":7499:7501   */\n      0x20\n        /* \"#utility.yul\":7491:7497   */\n      dup3\n        /* \"#utility.yul\":7487:7502   */\n      add\n        /* \"#utility.yul\":7480:7514   */\n      mstore\n        /* \"#utility.yul\":7295:7521   */\n      pop\n      jump\t// out\n        /* \"#utility.yul\":7527:7893   */\n    tag_100:\n        /* \"#utility.yul\":7669:7672   */\n      0x00\n        /* \"#utility.yul\":7690:7757   */\n      tag_179\n        /* \"#utility.yul\":7754:7756   */\n      0x27\n        /* \"#utility.yul\":7749:7752   */\n      dup4\n        /* \"#utility.yul\":7690:7757   */\n      tag_93\n      jump\t// in\n    tag_179:\n        /* \"#utility.yul\":7683:7757   */\n      swap2\n      pop\n        /* \"#utility.yul\":7766:7859   */\n      tag_180\n        /* \"#utility.yul\":7855:7858   */\n      dup3\n        /* \"#utility.yul\":7766:7859   */\n      tag_99\n      jump\t// in\n    tag_180:\n        /* \"#utility.yul\":7884:7886   */\n      0x40\n        /* \"#utility.yul\":7879:7882   */\n      dup3\n        /* \"#utility.yul\":7875:7887   */\n      add\n        /* \"#utility.yul\":7868:7887   */\n      swap1\n      pop\n        /* \"#utility.yul\":7527:7893   */\n      swap2\n      swap1\n      pop\n      jump\t// out\n        /* \"#utility.yul\":7899:8318   */\n    tag_65:\n        /* \"#utility.yul\":8065:8069   */\n      0x00\n        /* \"#utility.yul\":8103:8105   */\n      0x20\n        /* \"#utility.yul\":8092:8101   */\n      dup3\n        /* \"#utility.yul\":8088:8106   */\n      add\n        /* \"#utility.yul\":8080:8106   */\n      swap1\n      pop\n        /* \"#utility.yul\":8152:8161   */\n      dup2\n        /* \"#utility.yul\":8146:8150   */\n      dup2\n        /* \"#utility.yul\":8142:8162   */\n      sub\n        /* \"#utility.yul\":8138:8139   */\n      0x00\n        /* \"#utility.yul\":8127:8136   */\n      dup4\n        /* \"#utility.yul\":8123:8140   */\n      add\n        /* \"#utility.yul\":8116:8163   */\n      mstore\n        /* \"#utility.yul\":8180:8311   */\n      tag_182\n        /* \"#utility.yul\":8306:8310   */\n      dup2\n        /* \"#utility.yul\":8180:8311   */\n      tag_100\n      jump\t// in\n    tag_182:\n        /* \"#utility.yul\":8172:8311   */\n      swap1\n      pop\n        /* \"#utility.yul\":7899:8318   */\n      swap2\n      swap1\n      pop\n      jump\t// out\n        /* \"#utility.yul\":8324:8547   */\n    tag_101:\n        /* \"#utility.yul\":8464:8498   */\n      0x44656c697665727920686173206e6f74206265656e20636f6e6669726d656420\n        /* \"#utility.yul\":8460:8461   */\n      0x00\n        /* \"#utility.yul\":8452:8458   */\n      dup3\n        /* \"#utility.yul\":8448:8462   */\n      add\n        /* \"#utility.yul\":8441:8499   */\n      mstore\n        /* \"#utility.yul\":8533:8539   */\n      0x7965742e00000000000000000000000000000000000000000000000000000000\n        /* \"#utility.yul\":8528:8530   */\n      0x20\n        /* \"#utility.yul\":8520:8526   */\n      dup3\n        /* \"#utility.yul\":8516:8531   */\n      add\n        /* \"#utility.yul\":8509:8540   */\n      mstore\n        /* \"#utility.yul\":8324:8547   */\n      pop\n      jump\t// out\n        /* \"#utility.yul\":8553:8919   */\n    tag_102:\n        /* \"#utility.yul\":8695:8698   */\n      0x00\n        /* \"#utility.yul\":8716:8783   */\n      tag_185\n        /* \"#utility.yul\":8780:8782   */\n      0x24\n        /* \"#utility.yul\":8775:8778   */\n      dup4\n        /* \"#utility.yul\":8716:8783   */\n      tag_93\n      jump\t// in\n    tag_185:\n        /* \"#utility.yul\":8709:8783   */\n      swap2\n      pop\n        /* \"#utility.yul\":8792:8885   */\n      tag_186\n        /* \"#utility.yul\":8881:8884   */\n      dup3\n        /* \"#utility.yul\":8792:8885   */\n      tag_101\n      jump\t// in\n    tag_186:\n        /* \"#utility.yul\":8910:8912   */\n      0x40\n        /* \"#utility.yul\":8905:8908   */\n      dup3\n        /* \"#utility.yul\":8901:8913   */\n      add\n        /* \"#utility.yul\":8894:8913   */\n      swap1\n      pop\n        /* \"#utility.yul\":8553:8919   */\n      swap2\n      swap1\n      pop\n      jump\t// out\n        /* \"#utility.yul\":8925:9344   */\n    tag_69:\n        /* \"#utility.yul\":9091:9095   */\n      0x00\n        /* \"#utility.yul\":9129:9131   */\n      0x20\n        /* \"#utility.yul\":9118:9127   */\n      dup3\n        /* \"#utility.yul\":9114:9132   */\n      add\n        /* \"#utility.yul\":9106:9132   */\n      swap1\n      pop\n        /* \"#utility.yul\":9178:9187   */\n      dup2\n        /* \"#utility.yul\":9172:9176   */\n      dup2\n        /* \"#utility.yul\":9168:9188   */\n      sub\n        /* \"#utility.yul\":9164:9165   */\n      0x00\n        /* \"#utility.yul\":9153:9162   */\n      dup4\n        /* \"#utility.yul\":9149:9166   */\n      add\n        /* \"#utility.yul\":9142:9189   */\n      mstore\n        /* \"#utility.yul\":9206:9337   */\n      tag_188\n        /* \"#utility.yul\":9332:9336   */\n      dup2\n        /* \"#utility.yul\":9206:9337   */\n      tag_102\n      jump\t// in\n    tag_188:\n        /* \"#utility.yul\":9198:9337   */\n      swap1\n      pop\n        /* \"#utility.yul\":8925:9344   */\n      swap2\n      swap1\n      pop\n      jump\t// out\n        /* \"#utility.yul\":9350:9573   */\n    tag_103:\n        /* \"#utility.yul\":9490:9524   */\n      0x44656c69766572792068617320616c7265616479206265656e20636f6e666972\n        /* \"#utility.yul\":9486:9487   */\n      0x00\n        /* \"#utility.yul\":9478:9484   */\n      dup3\n        /* \"#utility.yul\":9474:9488   */\n      add\n        /* \"#utility.yul\":9467:9525   */\n      mstore\n        /* \"#utility.yul\":9559:9565   */\n      0x6d65642e00000000000000000000000000000000000000000000000000000000\n        /* \"#utility.yul\":9554:9556   */\n      0x20\n        /* \"#utility.yul\":9546:9552   */\n      dup3\n        /* \"#utility.yul\":9542:9557   */\n      add\n        /* \"#utility.yul\":9535:9566   */\n      mstore\n        /* \"#utility.yul\":9350:9573   */\n      pop\n      jump\t// out\n        /* \"#utility.yul\":9579:9945   */\n    tag_104:\n        /* \"#utility.yul\":9721:9724   */\n      0x00\n        /* \"#utility.yul\":9742:9809   */\n      tag_191\n        /* \"#utility.yul\":9806:9808   */\n      0x24\n        /* \"#utility.yul\":9801:9804   */\n      dup4\n        /* \"#utility.yul\":9742:9809   */\n      tag_93\n      jump\t// in\n    tag_191:\n        /* \"#utility.yul\":9735:9809   */\n      swap2\n      pop\n        /* \"#utility.yul\":9818:9911   */\n      tag_192\n        /* \"#utility.yul\":9907:9910   */\n      dup3\n        /* \"#utility.yul\":9818:9911   */\n      tag_103\n      jump\t// in\n    tag_192:\n        /* \"#utility.yul\":9936:9938   */\n      0x40\n        /* \"#utility.yul\":9931:9934   */\n      dup3\n        /* \"#utility.yul\":9927:9939   */\n      add\n        /* \"#utility.yul\":9920:9939   */\n      swap1\n      pop\n        /* \"#utility.yul\":9579:9945   */\n      swap2\n      swap1\n      pop\n      jump\t// out\n        /* \"#utility.yul\":9951:10370   */\n    tag_78:\n        /* \"#utility.yul\":10117:10121   */\n      0x00\n        /* \"#utility.yul\":10155:10157   */\n      0x20\n        /* \"#utility.yul\":10144:10153   */\n      dup3\n        /* \"#utility.yul\":10140:10158   */\n      add\n        /* \"#utility.yul\":10132:10158   */\n      swap1\n      pop\n        /* \"#utility.yul\":10204:10213   */\n      dup2\n        /* \"#utility.yul\":10198:10202   */\n      dup2\n        /* \"#utility.yul\":10194:10214   */\n      sub\n        /* \"#utility.yul\":10190:10191   */\n      0x00\n        /* \"#utility.yul\":10179:10188   */\n      dup4\n        /* \"#utility.yul\":10175:10192   */\n      add\n        /* \"#utility.yul\":10168:10215   */\n      mstore\n        /* \"#utility.yul\":10232:10363   */\n      tag_194\n        /* \"#utility.yul\":10358:10362   */\n      dup2\n        /* \"#utility.yul\":10232:10363   */\n      tag_104\n      jump\t// in\n    tag_194:\n        /* \"#utility.yul\":10224:10363   */\n      swap1\n      pop\n        /* \"#utility.yul\":9951:10370   */\n      swap2\n      swap1\n      pop\n      jump\t// out\n\n    auxdata: 0xa26469706673582212206efa7cc37bd0b4cc2ed8f0f03ae52e6a353aa9b741f7aa77432f973529ea34dc64736f6c634300081a0033\n}\n",
				"bytecode": {
					"linkReferences": {},
					"object": "6080604052348015600e575f80fd5b50610d9c8061001c5f395ff3fe60806040526004361061007a575f3560e01c8063a85c38ef1161004d578063a85c38ef1461012d578063adcb9f041461016d578063f5c529a714610195578063fd84cb97146101bd5761007a565b80632453ffa81461007e578063691d5a01146100a8578063843f61e2146100d257806399c6713b146100ee575b5f80fd5b348015610089575f80fd5b506100926101e5565b60405161009f9190610814565b60405180910390f35b3480156100b3575f80fd5b506100bc6101eb565b6040516100c99190610814565b60405180910390f35b6100ec60048036038101906100e7919061085b565b6101f1565b005b3480156100f9575f80fd5b50610114600480360381019061010f9190610899565b6103b7565b6040516101249493929190610903565b60405180910390f35b348015610138575f80fd5b50610153600480360381019061014e9190610899565b610401565b604051610164959493929190610960565b60405180910390f35b348015610178575f80fd5b50610193600480360381019061018e9190610899565b61045e565b005b3480156101a0575f80fd5b506101bb60048036038101906101b691906109b1565b610563565b005b3480156101c8575f80fd5b506101e360048036038101906101de9190610899565b61062d565b005b60035481565b60015481565b5f808381526020019081526020015f2060010154811115610247576040517f08c379a000000000000000000000000000000000000000000000000000000000815260040161023e90610a81565b60405180910390fd5b805f808481526020019081526020015f20600201546102669190610acc565b3410156102a8576040517f08c379a000000000000000000000000000000000000000000000000000000000815260040161029f90610b57565b60405180910390fd5b6040518060a001604052803373ffffffffffffffffffffffffffffffffffffffff168152602001838152602001828152602001825f808681526020019081526020015f20600201546102fa9190610acc565b81526020015f151581525060025f60035481526020019081526020015f205f820151815f015f6101000a81548173ffffffffffffffffffffffffffffffffffffffff021916908373ffffffffffffffffffffffffffffffffffffffff1602179055506020820151816001015560408201518160020155606082015181600301556080820151816004015f6101000a81548160ff02191690831515021790555090505060035f8154809291906103ae90610b75565b91905055505050565b5f602052805f5260405f205f91509050805f015f9054906101000a900473ffffffffffffffffffffffffffffffffffffffff16908060010154908060020154908060030154905084565b6002602052805f5260405f205f91509050805f015f9054906101000a900473ffffffffffffffffffffffffffffffffffffffff1690806001015490806002015490806003015490806004015f9054906101000a900460ff16905085565b8060025f8281526020019081526020015f205f015f9054906101000a900473ffffffffffffffffffffffffffffffffffffffff1673ffffffffffffffffffffffffffffffffffffffff163373ffffffffffffffffffffffffffffffffffffffff16146104ff576040517f08c379a00000000000000000000000000000000000000000000000000000000081526004016104f690610c2c565b60405180910390fd5b60025f8381526020019081526020015f206004015f9054906101000a900460ff1661055f576040517f08c379a000000000000000000000000000000000000000000000000000000000815260040161055690610cba565b60405180910390fd5b5050565b60405180608001604052803373ffffffffffffffffffffffffffffffffffffffff168152602001848152602001838152602001828152505f8060015481526020019081526020015f205f820151815f015f6101000a81548173ffffffffffffffffffffffffffffffffffffffff021916908373ffffffffffffffffffffffffffffffffffffffff16021790555060208201518160010155604082015181600201556060820151816003015590505060015f81548092919061062390610b75565b9190505550505050565b8060025f8281526020019081526020015f205f015f9054906101000a900473ffffffffffffffffffffffffffffffffffffffff1673ffffffffffffffffffffffffffffffffffffffff163373ffffffffffffffffffffffffffffffffffffffff16146106ce576040517f08c379a00000000000000000000000000000000000000000000000000000000081526004016106c590610c2c565b60405180910390fd5b60025f8381526020019081526020015f206004015f9054906101000a900460ff161561072f576040517f08c379a000000000000000000000000000000000000000000000000000000000815260040161072690610d48565b60405180910390fd5b600160025f8481526020019081526020015f206004015f6101000a81548160ff0219169083151502179055505f8060025f8581526020019081526020015f206001015481526020019081526020015f205f015f9054906101000a900473ffffffffffffffffffffffffffffffffffffffff1673ffffffffffffffffffffffffffffffffffffffff166108fc60025f8581526020019081526020015f206003015490811502906040515f60405180830381858888f193505050501580156107f7573d5f803e3d5ffd5b505050565b5f819050919050565b61080e816107fc565b82525050565b5f6020820190506108275f830184610805565b92915050565b5f80fd5b61083a816107fc565b8114610844575f80fd5b50565b5f8135905061085581610831565b92915050565b5f80604083850312156108715761087061082d565b5b5f61087e85828601610847565b925050602061088f85828601610847565b9150509250929050565b5f602082840312156108ae576108ad61082d565b5b5f6108bb84828501610847565b91505092915050565b5f73ffffffffffffffffffffffffffffffffffffffff82169050919050565b5f6108ed826108c4565b9050919050565b6108fd816108e3565b82525050565b5f6080820190506109165f8301876108f4565b6109236020830186610805565b6109306040830185610805565b61093d6060830184610805565b95945050505050565b5f8115159050919050565b61095a81610946565b82525050565b5f60a0820190506109735f8301886108f4565b6109806020830187610805565b61098d6040830186610805565b61099a6060830185610805565b6109a76080830184610951565b9695505050505050565b5f805f606084860312156109c8576109c761082d565b5b5f6109d586828701610847565b93505060206109e686828701610847565b92505060406109f786828701610847565b9150509250925092565b5f82825260208201905092915050565b7f526571756573746564207175616e74697479206578636565647320617661696c5f8201527f61626c6520696e76656e746f72792e0000000000000000000000000000000000602082015250565b5f610a6b602f83610a01565b9150610a7682610a11565b604082019050919050565b5f6020820190508181035f830152610a9881610a5f565b9050919050565b7f4e487b71000000000000000000000000000000000000000000000000000000005f52601160045260245ffd5b5f610ad6826107fc565b9150610ae1836107fc565b9250828202610aef816107fc565b91508282048414831517610b0657610b05610a9f565b5b5092915050565b7f496e73756666696369656e74207061796d656e742e00000000000000000000005f82015250565b5f610b41601583610a01565b9150610b4c82610b0d565b602082019050919050565b5f6020820190508181035f830152610b6e81610b35565b9050919050565b5f610b7f826107fc565b91507fffffffffffffffffffffffffffffffffffffffffffffffffffffffffffffffff8203610bb157610bb0610a9f565b5b600182019050919050565b7f4f6e6c79207468652062757965722063616e20706572666f726d2074686973205f8201527f616374696f6e2e00000000000000000000000000000000000000000000000000602082015250565b5f610c16602783610a01565b9150610c2182610bbc565b604082019050919050565b5f6020820190508181035f830152610c4381610c0a565b9050919050565b7f44656c697665727920686173206e6f74206265656e20636f6e6669726d6564205f8201527f7965742e00000000000000000000000000000000000000000000000000000000602082015250565b5f610ca4602483610a01565b9150610caf82610c4a565b604082019050919050565b5f6020820190508181035f830152610cd181610c98565b9050919050565b7f44656c69766572792068617320616c7265616479206265656e20636f6e6669725f8201527f6d65642e00000000000000000000000000000000000000000000000000000000602082015250565b5f610d32602483610a01565b9150610d3d82610cd8565b604082019050919050565b5f6020820190508181035f830152610d5f81610d26565b905091905056fea26469706673582212206efa7cc37bd0b4cc2ed8f0f03ae52e6a353aa9b741f7aa77432f973529ea34dc64736f6c634300081a0033",
					"opcodes": "PUSH1 0x80 PUSH1 0x40 MSTORE CALLVALUE DUP1 ISZERO PUSH1 0xE JUMPI PUSH0 DUP1 REVERT JUMPDEST POP PUSH2 0xD9C DUP1 PUSH2 0x1C PUSH0 CODECOPY PUSH0 RETURN INVALID PUSH1 0x80 PUSH1 0x40 MSTORE PUSH1 0x4 CALLDATASIZE LT PUSH2 0x7A JUMPI PUSH0 CALLDATALOAD PUSH1 0xE0 SHR DUP1 PUSH4 0xA85C38EF GT PUSH2 0x4D JUMPI DUP1 PUSH4 0xA85C38EF EQ PUSH2 0x12D JUMPI DUP1 PUSH4 0xADCB9F04 EQ PUSH2 0x16D JUMPI DUP1 PUSH4 0xF5C529A7 EQ PUSH2 0x195 JUMPI DUP1 PUSH4 0xFD84CB97 EQ PUSH2 0x1BD JUMPI PUSH2 0x7A JUMP JUMPDEST DUP1 PUSH4 0x2453FFA8 EQ PUSH2 0x7E JUMPI DUP1 PUSH4 0x691D5A01 EQ PUSH2 0xA8 JUMPI DUP1 PUSH4 0x843F61E2 EQ PUSH2 0xD2 JUMPI DUP1 PUSH4 0x99C6713B EQ PUSH2 0xEE JUMPI JUMPDEST PUSH0 DUP1 REVERT JUMPDEST CALLVALUE DUP1 ISZERO PUSH2 0x89 JUMPI PUSH0 DUP1 REVERT JUMPDEST POP PUSH2 0x92 PUSH2 0x1E5 JUMP JUMPDEST PUSH1 0x40 MLOAD PUSH2 0x9F SWAP2 SWAP1 PUSH2 0x814 JUMP JUMPDEST PUSH1 0x40 MLOAD DUP1 SWAP2 SUB SWAP1 RETURN JUMPDEST CALLVALUE DUP1 ISZERO PUSH2 0xB3 JUMPI PUSH0 DUP1 REVERT JUMPDEST POP PUSH2 0xBC PUSH2 0x1EB JUMP JUMPDEST PUSH1 0x40 MLOAD PUSH2 0xC9 SWAP2 SWAP1 PUSH2 0x814 JUMP JUMPDEST PUSH1 0x40 MLOAD DUP1 SWAP2 SUB SWAP1 RETURN JUMPDEST PUSH2 0xEC PUSH1 0x4 DUP1 CALLDATASIZE SUB DUP2 ADD SWAP1 PUSH2 0xE7 SWAP2 SWAP1 PUSH2 0x85B JUMP JUMPDEST PUSH2 0x1F1 JUMP JUMPDEST STOP JUMPDEST CALLVALUE DUP1 ISZERO PUSH2 0xF9 JUMPI PUSH0 DUP1 REVERT JUMPDEST POP PUSH2 0x114 PUSH1 0x4 DUP1 CALLDATASIZE SUB DUP2 ADD SWAP1 PUSH2 0x10F SWAP2 SWAP1 PUSH2 0x899 JUMP JUMPDEST PUSH2 0x3B7 JUMP JUMPDEST PUSH1 0x40 MLOAD PUSH2 0x124 SWAP5 SWAP4 SWAP3 SWAP2 SWAP1 PUSH2 0x903 JUMP JUMPDEST PUSH1 0x40 MLOAD DUP1 SWAP2 SUB SWAP1 RETURN JUMPDEST CALLVALUE DUP1 ISZERO PUSH2 0x138 JUMPI PUSH0 DUP1 REVERT JUMPDEST POP PUSH2 0x153 PUSH1 0x4 DUP1 CALLDATASIZE SUB DUP2 ADD SWAP1 PUSH2 0x14E SWAP2 SWAP1 PUSH2 0x899 JUMP JUMPDEST PUSH2 0x401 JUMP JUMPDEST PUSH1 0x40 MLOAD PUSH2 0x164 SWAP6 SWAP5 SWAP4 SWAP3 SWAP2 SWAP1 PUSH2 0x960 JUMP JUMPDEST PUSH1 0x40 MLOAD DUP1 SWAP2 SUB SWAP1 RETURN JUMPDEST CALLVALUE DUP1 ISZERO PUSH2 0x178 JUMPI PUSH0 DUP1 REVERT JUMPDEST POP PUSH2 0x193 PUSH1 0x4 DUP1 CALLDATASIZE SUB DUP2 ADD SWAP1 PUSH2 0x18E SWAP2 SWAP1 PUSH2 0x899 JUMP JUMPDEST PUSH2 0x45E JUMP JUMPDEST STOP JUMPDEST CALLVALUE DUP1 ISZERO PUSH2 0x1A0 JUMPI PUSH0 DUP1 REVERT JUMPDEST POP PUSH2 0x1BB PUSH1 0x4 DUP1 CALLDATASIZE SUB DUP2 ADD SWAP1 PUSH2 0x1B6 SWAP2 SWAP1 PUSH2 0x9B1 JUMP JUMPDEST PUSH2 0x563 JUMP JUMPDEST STOP JUMPDEST CALLVALUE DUP1 ISZERO PUSH2 0x1C8 JUMPI PUSH0 DUP1 REVERT JUMPDEST POP PUSH2 0x1E3 PUSH1 0x4 DUP1 CALLDATASIZE SUB DUP2 ADD SWAP1 PUSH2 0x1DE SWAP2 SWAP1 PUSH2 0x899 JUMP JUMPDEST PUSH2 0x62D JUMP JUMPDEST STOP JUMPDEST PUSH1 0x3 SLOAD DUP2 JUMP JUMPDEST PUSH1 0x1 SLOAD DUP2 JUMP JUMPDEST PUSH0 DUP1 DUP4 DUP2 MSTORE PUSH1 0x20 ADD SWAP1 DUP2 MSTORE PUSH1 0x20 ADD PUSH0 KECCAK256 PUSH1 0x1 ADD SLOAD DUP2 GT ISZERO PUSH2 0x247 JUMPI PUSH1 0x40 MLOAD PUSH32 0x8C379A000000000000000000000000000000000000000000000000000000000 DUP2 MSTORE PUSH1 0x4 ADD PUSH2 0x23E SWAP1 PUSH2 0xA81 JUMP JUMPDEST PUSH1 0x40 MLOAD DUP1 SWAP2 SUB SWAP1 REVERT JUMPDEST DUP1 PUSH0 DUP1 DUP5 DUP2 MSTORE PUSH1 0x20 ADD SWAP1 DUP2 MSTORE PUSH1 0x20 ADD PUSH0 KECCAK256 PUSH1 0x2 ADD SLOAD PUSH2 0x266 SWAP2 SWAP1 PUSH2 0xACC JUMP JUMPDEST CALLVALUE LT ISZERO PUSH2 0x2A8 JUMPI PUSH1 0x40 MLOAD PUSH32 0x8C379A000000000000000000000000000000000000000000000000000000000 DUP2 MSTORE PUSH1 0x4 ADD PUSH2 0x29F SWAP1 PUSH2 0xB57 JUMP JUMPDEST PUSH1 0x40 MLOAD DUP1 SWAP2 SUB SWAP1 REVERT JUMPDEST PUSH1 0x40 MLOAD DUP1 PUSH1 0xA0 ADD PUSH1 0x40 MSTORE DUP1 CALLER PUSH20 0xFFFFFFFFFFFFFFFFFFFFFFFFFFFFFFFFFFFFFFFF AND DUP2 MSTORE PUSH1 0x20 ADD DUP4 DUP2 MSTORE PUSH1 0x20 ADD DUP3 DUP2 MSTORE PUSH1 0x20 ADD DUP3 PUSH0 DUP1 DUP7 DUP2 MSTORE PUSH1 0x20 ADD SWAP1 DUP2 MSTORE PUSH1 0x20 ADD PUSH0 KECCAK256 PUSH1 0x2 ADD SLOAD PUSH2 0x2FA SWAP2 SWAP1 PUSH2 0xACC JUMP JUMPDEST DUP2 MSTORE PUSH1 0x20 ADD PUSH0 ISZERO ISZERO DUP2 MSTORE POP PUSH1 0x2 PUSH0 PUSH1 0x3 SLOAD DUP2 MSTORE PUSH1 0x20 ADD SWAP1 DUP2 MSTORE PUSH1 0x20 ADD PUSH0 KECCAK256 PUSH0 DUP3 ADD MLOAD DUP2 PUSH0 ADD PUSH0 PUSH2 0x100 EXP DUP2 SLOAD DUP2 PUSH20 0xFFFFFFFFFFFFFFFFFFFFFFFFFFFFFFFFFFFFFFFF MUL NOT AND SWAP1 DUP4 PUSH20 0xFFFFFFFFFFFFFFFFFFFFFFFFFFFFFFFFFFFFFFFF AND MUL OR SWAP1 SSTORE POP PUSH1 0x20 DUP3 ADD MLOAD DUP2 PUSH1 0x1 ADD SSTORE PUSH1 0x40 DUP3 ADD MLOAD DUP2 PUSH1 0x2 ADD SSTORE PUSH1 0x60 DUP3 ADD MLOAD DUP2 PUSH1 0x3 ADD SSTORE PUSH1 0x80 DUP3 ADD MLOAD DUP2 PUSH1 0x4 ADD PUSH0 PUSH2 0x100 EXP DUP2 SLOAD DUP2 PUSH1 0xFF MUL NOT AND SWAP1 DUP4 ISZERO ISZERO MUL OR SWAP1 SSTORE POP SWAP1 POP POP PUSH1 0x3 PUSH0 DUP2 SLOAD DUP1 SWAP3 SWAP2 SWAP1 PUSH2 0x3AE SWAP1 PUSH2 0xB75 JUMP JUMPDEST SWAP2 SWAP1 POP SSTORE POP POP POP JUMP JUMPDEST PUSH0 PUSH1 0x20 MSTORE DUP1 PUSH0 MSTORE PUSH1 0x40 PUSH0 KECCAK256 PUSH0 SWAP2 POP SWAP1 POP DUP1 PUSH0 ADD PUSH0 SWAP1 SLOAD SWAP1 PUSH2 0x100 EXP SWAP1 DIV PUSH20 0xFFFFFFFFFFFFFFFFFFFFFFFFFFFFFFFFFFFFFFFF AND SWAP1 DUP1 PUSH1 0x1 ADD SLOAD SWAP1 DUP1 PUSH1 0x2 ADD SLOAD SWAP1 DUP1 PUSH1 0x3 ADD SLOAD SWAP1 POP DUP5 JUMP JUMPDEST PUSH1 0x2 PUSH1 0x20 MSTORE DUP1 PUSH0 MSTORE PUSH1 0x40 PUSH0 KECCAK256 PUSH0 SWAP2 POP SWAP1 POP DUP1 PUSH0 ADD PUSH0 SWAP1 SLOAD SWAP1 PUSH2 0x100 EXP SWAP1 DIV PUSH20 0xFFFFFFFFFFFFFFFFFFFFFFFFFFFFFFFFFFFFFFFF AND SWAP1 DUP1 PUSH1 0x1 ADD SLOAD SWAP1 DUP1 PUSH1 0x2 ADD SLOAD SWAP1 DUP1 PUSH1 0x3 ADD SLOAD SWAP1 DUP1 PUSH1 0x4 ADD PUSH0 SWAP1 SLOAD SWAP1 PUSH2 0x100 EXP SWAP1 DIV PUSH1 0xFF AND SWAP1 POP DUP6 JUMP JUMPDEST DUP1 PUSH1 0x2 PUSH0 DUP3 DUP2 MSTORE PUSH1 0x20 ADD SWAP1 DUP2 MSTORE PUSH1 0x20 ADD PUSH0 KECCAK256 PUSH0 ADD PUSH0 SWAP1 SLOAD SWAP1 PUSH2 0x100 EXP SWAP1 DIV PUSH20 0xFFFFFFFFFFFFFFFFFFFFFFFFFFFFFFFFFFFFFFFF AND PUSH20 0xFFFFFFFFFFFFFFFFFFFFFFFFFFFFFFFFFFFFFFFF AND CALLER PUSH20 0xFFFFFFFFFFFFFFFFFFFFFFFFFFFFFFFFFFFFFFFF AND EQ PUSH2 0x4FF JUMPI PUSH1 0x40 MLOAD PUSH32 0x8C379A000000000000000000000000000000000000000000000000000000000 DUP2 MSTORE PUSH1 0x4 ADD PUSH2 0x4F6 SWAP1 PUSH2 0xC2C JUMP JUMPDEST PUSH1 0x40 MLOAD DUP1 SWAP2 SUB SWAP1 REVERT JUMPDEST PUSH1 0x2 PUSH0 DUP4 DUP2 MSTORE PUSH1 0x20 ADD SWAP1 DUP2 MSTORE PUSH1 0x20 ADD PUSH0 KECCAK256 PUSH1 0x4 ADD PUSH0 SWAP1 SLOAD SWAP1 PUSH2 0x100 EXP SWAP1 DIV PUSH1 0xFF AND PUSH2 0x55F JUMPI PUSH1 0x40 MLOAD PUSH32 0x8C379A000000000000000000000000000000000000000000000000000000000 DUP2 MSTORE PUSH1 0x4 ADD PUSH2 0x556 SWAP1 PUSH2 0xCBA JUMP JUMPDEST PUSH1 0x40 MLOAD DUP1 SWAP2 SUB SWAP1 REVERT JUMPDEST POP POP JUMP JUMPDEST PUSH1 0x40 MLOAD DUP1 PUSH1 0x80 ADD PUSH1 0x40 MSTORE DUP1 CALLER PUSH20 0xFFFFFFFFFFFFFFFFFFFFFFFFFFFFFFFFFFFFFFFF AND DUP2 MSTORE PUSH1 0x20 ADD DUP5 DUP2 MSTORE PUSH1 0x20 ADD DUP4 DUP2 MSTORE PUSH1 0x20 ADD DUP3 DUP2 MSTORE POP PUSH0 DUP1 PUSH1 0x1 SLOAD DUP2 MSTORE PUSH1 0x20 ADD SWAP1 DUP2 MSTORE PUSH1 0x20 ADD PUSH0 KECCAK256 PUSH0 DUP3 ADD MLOAD DUP2 PUSH0 ADD PUSH0 PUSH2 0x100 EXP DUP2 SLOAD DUP2 PUSH20 0xFFFFFFFFFFFFFFFFFFFFFFFFFFFFFFFFFFFFFFFF MUL NOT AND SWAP1 DUP4 PUSH20 0xFFFFFFFFFFFFFFFFFFFFFFFFFFFFFFFFFFFFFFFF AND MUL OR SWAP1 SSTORE POP PUSH1 0x20 DUP3 ADD MLOAD DUP2 PUSH1 0x1 ADD SSTORE PUSH1 0x40 DUP3 ADD MLOAD DUP2 PUSH1 0x2 ADD SSTORE PUSH1 0x60 DUP3 ADD MLOAD DUP2 PUSH1 0x3 ADD SSTORE SWAP1 POP POP PUSH1 0x1 PUSH0 DUP2 SLOAD DUP1 SWAP3 SWAP2 SWAP1 PUSH2 0x623 SWAP1 PUSH2 0xB75 JUMP JUMPDEST SWAP2 SWAP1 POP SSTORE POP POP POP POP JUMP JUMPDEST DUP1 PUSH1 0x2 PUSH0 DUP3 DUP2 MSTORE PUSH1 0x20 ADD SWAP1 DUP2 MSTORE PUSH1 0x20 ADD PUSH0 KECCAK256 PUSH0 ADD PUSH0 SWAP1 SLOAD SWAP1 PUSH2 0x100 EXP SWAP1 DIV PUSH20 0xFFFFFFFFFFFFFFFFFFFFFFFFFFFFFFFFFFFFFFFF AND PUSH20 0xFFFFFFFFFFFFFFFFFFFFFFFFFFFFFFFFFFFFFFFF AND CALLER PUSH20 0xFFFFFFFFFFFFFFFFFFFFFFFFFFFFFFFFFFFFFFFF AND EQ PUSH2 0x6CE JUMPI PUSH1 0x40 MLOAD PUSH32 0x8C379A000000000000000000000000000000000000000000000000000000000 DUP2 MSTORE PUSH1 0x4 ADD PUSH2 0x6C5 SWAP1 PUSH2 0xC2C JUMP JUMPDEST PUSH1 0x40 MLOAD DUP1 SWAP2 SUB SWAP1 REVERT JUMPDEST PUSH1 0x2 PUSH0 DUP4 DUP2 MSTORE PUSH1 0x20 ADD SWAP1 DUP2 MSTORE PUSH1 0x20 ADD PUSH0 KECCAK256 PUSH1 0x4 ADD PUSH0 SWAP1 SLOAD SWAP1 PUSH2 0x100 EXP SWAP1 DIV PUSH1 0xFF AND ISZERO PUSH2 0x72F JUMPI PUSH1 0x40 MLOAD PUSH32 0x8C379A000000000000000000000000000000000000000000000000000000000 DUP2 MSTORE PUSH1 0x4 ADD PUSH2 0x726 SWAP1 PUSH2 0xD48 JUMP JUMPDEST PUSH1 0x40 MLOAD DUP1 SWAP2 SUB SWAP1 REVERT JUMPDEST PUSH1 0x1 PUSH1 0x2 PUSH0 DUP5 DUP2 MSTORE PUSH1 0x20 ADD SWAP1 DUP2 MSTORE PUSH1 0x20 ADD PUSH0 KECCAK256 PUSH1 0x4 ADD PUSH0 PUSH2 0x100 EXP DUP2 SLOAD DUP2 PUSH1 0xFF MUL NOT AND SWAP1 DUP4 ISZERO ISZERO MUL OR SWAP1 SSTORE POP PUSH0 DUP1 PUSH1 0x2 PUSH0 DUP6 DUP2 MSTORE PUSH1 0x20 ADD SWAP1 DUP2 MSTORE PUSH1 0x20 ADD PUSH0 KECCAK256 PUSH1 0x1 ADD SLOAD DUP2 MSTORE PUSH1 0x20 ADD SWAP1 DUP2 MSTORE PUSH1 0x20 ADD PUSH0 KECCAK256 PUSH0 ADD PUSH0 SWAP1 SLOAD SWAP1 PUSH2 0x100 EXP SWAP1 DIV PUSH20 0xFFFFFFFFFFFFFFFFFFFFFFFFFFFFFFFFFFFFFFFF AND PUSH20 0xFFFFFFFFFFFFFFFFFFFFFFFFFFFFFFFFFFFFFFFF AND PUSH2 0x8FC PUSH1 0x2 PUSH0 DUP6 DUP2 MSTORE PUSH1 0x20 ADD SWAP1 DUP2 MSTORE PUSH1 0x20 ADD PUSH0 KECCAK256 PUSH1 0x3 ADD SLOAD SWAP1 DUP2 ISZERO MUL SWAP1 PUSH1 0x40 MLOAD PUSH0 PUSH1 0x40 MLOAD DUP1 DUP4 SUB DUP2 DUP6 DUP9 DUP9 CALL SWAP4 POP POP POP POP ISZERO DUP1 ISZERO PUSH2 0x7F7 JUMPI RETURNDATASIZE PUSH0 DUP1 RETURNDATACOPY RETURNDATASIZE PUSH0 REVERT JUMPDEST POP POP POP JUMP JUMPDEST PUSH0 DUP2 SWAP1 POP SWAP2 SWAP1 POP JUMP JUMPDEST PUSH2 0x80E DUP2 PUSH2 0x7FC JUMP JUMPDEST DUP3 MSTORE POP POP JUMP JUMPDEST PUSH0 PUSH1 0x20 DUP3 ADD SWAP1 POP PUSH2 0x827 PUSH0 DUP4 ADD DUP5 PUSH2 0x805 JUMP JUMPDEST SWAP3 SWAP2 POP POP JUMP JUMPDEST PUSH0 DUP1 REVERT JUMPDEST PUSH2 0x83A DUP2 PUSH2 0x7FC JUMP JUMPDEST DUP2 EQ PUSH2 0x844 JUMPI PUSH0 DUP1 REVERT JUMPDEST POP JUMP JUMPDEST PUSH0 DUP2 CALLDATALOAD SWAP1 POP PUSH2 0x855 DUP2 PUSH2 0x831 JUMP JUMPDEST SWAP3 SWAP2 POP POP JUMP JUMPDEST PUSH0 DUP1 PUSH1 0x40 DUP4 DUP6 SUB SLT ISZERO PUSH2 0x871 JUMPI PUSH2 0x870 PUSH2 0x82D JUMP JUMPDEST JUMPDEST PUSH0 PUSH2 0x87E DUP6 DUP3 DUP7 ADD PUSH2 0x847 JUMP JUMPDEST SWAP3 POP POP PUSH1 0x20 PUSH2 0x88F DUP6 DUP3 DUP7 ADD PUSH2 0x847 JUMP JUMPDEST SWAP2 POP POP SWAP3 POP SWAP3 SWAP1 POP JUMP JUMPDEST PUSH0 PUSH1 0x20 DUP3 DUP5 SUB SLT ISZERO PUSH2 0x8AE JUMPI PUSH2 0x8AD PUSH2 0x82D JUMP JUMPDEST JUMPDEST PUSH0 PUSH2 0x8BB DUP5 DUP3 DUP6 ADD PUSH2 0x847 JUMP JUMPDEST SWAP2 POP POP SWAP3 SWAP2 POP POP JUMP JUMPDEST PUSH0 PUSH20 0xFFFFFFFFFFFFFFFFFFFFFFFFFFFFFFFFFFFFFFFF DUP3 AND SWAP1 POP SWAP2 SWAP1 POP JUMP JUMPDEST PUSH0 PUSH2 0x8ED DUP3 PUSH2 0x8C4 JUMP JUMPDEST SWAP1 POP SWAP2 SWAP1 POP JUMP JUMPDEST PUSH2 0x8FD DUP2 PUSH2 0x8E3 JUMP JUMPDEST DUP3 MSTORE POP POP JUMP JUMPDEST PUSH0 PUSH1 0x80 DUP3 ADD SWAP1 POP PUSH2 0x916 PUSH0 DUP4 ADD DUP8 PUSH2 0x8F4 JUMP JUMPDEST PUSH2 0x923 PUSH1 0x20 DUP4 ADD DUP7 PUSH2 0x805 JUMP JUMPDEST PUSH2 0x930 PUSH1 0x40 DUP4 ADD DUP6 PUSH2 0x805 JUMP JUMPDEST PUSH2 0x93D PUSH1 0x60 DUP4 ADD DUP5 PUSH2 0x805 JUMP JUMPDEST SWAP6 SWAP5 POP POP POP POP POP JUMP JUMPDEST PUSH0 DUP2 ISZERO ISZERO SWAP1 POP SWAP2 SWAP1 POP JUMP JUMPDEST PUSH2 0x95A DUP2 PUSH2 0x946 JUMP JUMPDEST DUP3 MSTORE POP POP JUMP JUMPDEST PUSH0 PUSH1 0xA0 DUP3 ADD SWAP1 POP PUSH2 0x973 PUSH0 DUP4 ADD DUP9 PUSH2 0x8F4 JUMP JUMPDEST PUSH2 0x980 PUSH1 0x20 DUP4 ADD DUP8 PUSH2 0x805 JUMP JUMPDEST PUSH2 0x98D PUSH1 0x40 DUP4 ADD DUP7 PUSH2 0x805 JUMP JUMPDEST PUSH2 0x99A PUSH1 0x60 DUP4 ADD DUP6 PUSH2 0x805 JUMP JUMPDEST PUSH2 0x9A7 PUSH1 0x80 DUP4 ADD DUP5 PUSH2 0x951 JUMP JUMPDEST SWAP7 SWAP6 POP POP POP POP POP POP JUMP JUMPDEST PUSH0 DUP1 PUSH0 PUSH1 0x60 DUP5 DUP7 SUB SLT ISZERO PUSH2 0x9C8 JUMPI PUSH2 0x9C7 PUSH2 0x82D JUMP JUMPDEST JUMPDEST PUSH0 PUSH2 0x9D5 DUP7 DUP3 DUP8 ADD PUSH2 0x847 JUMP JUMPDEST SWAP4 POP POP PUSH1 0x20 PUSH2 0x9E6 DUP7 DUP3 DUP8 ADD PUSH2 0x847 JUMP JUMPDEST SWAP3 POP POP PUSH1 0x40 PUSH2 0x9F7 DUP7 DUP3 DUP8 ADD PUSH2 0x847 JUMP JUMPDEST SWAP2 POP POP SWAP3 POP SWAP3 POP SWAP3 JUMP JUMPDEST PUSH0 DUP3 DUP3 MSTORE PUSH1 0x20 DUP3 ADD SWAP1 POP SWAP3 SWAP2 POP POP JUMP JUMPDEST PUSH32 0x526571756573746564207175616E74697479206578636565647320617661696C PUSH0 DUP3 ADD MSTORE PUSH32 0x61626C6520696E76656E746F72792E0000000000000000000000000000000000 PUSH1 0x20 DUP3 ADD MSTORE POP JUMP JUMPDEST PUSH0 PUSH2 0xA6B PUSH1 0x2F DUP4 PUSH2 0xA01 JUMP JUMPDEST SWAP2 POP PUSH2 0xA76 DUP3 PUSH2 0xA11 JUMP JUMPDEST PUSH1 0x40 DUP3 ADD SWAP1 POP SWAP2 SWAP1 POP JUMP JUMPDEST PUSH0 PUSH1 0x20 DUP3 ADD SWAP1 POP DUP2 DUP2 SUB PUSH0 DUP4 ADD MSTORE PUSH2 0xA98 DUP2 PUSH2 0xA5F JUMP JUMPDEST SWAP1 POP SWAP2 SWAP1 POP JUMP JUMPDEST PUSH32 0x4E487B7100000000000000000000000000000000000000000000000000000000 PUSH0 MSTORE PUSH1 0x11 PUSH1 0x4 MSTORE PUSH1 0x24 PUSH0 REVERT JUMPDEST PUSH0 PUSH2 0xAD6 DUP3 PUSH2 0x7FC JUMP JUMPDEST SWAP2 POP PUSH2 0xAE1 DUP4 PUSH2 0x7FC JUMP JUMPDEST SWAP3 POP DUP3 DUP3 MUL PUSH2 0xAEF DUP2 PUSH2 0x7FC JUMP JUMPDEST SWAP2 POP DUP3 DUP3 DIV DUP5 EQ DUP4 ISZERO OR PUSH2 0xB06 JUMPI PUSH2 0xB05 PUSH2 0xA9F JUMP JUMPDEST JUMPDEST POP SWAP3 SWAP2 POP POP JUMP JUMPDEST PUSH32 0x496E73756666696369656E74207061796D656E742E0000000000000000000000 PUSH0 DUP3 ADD MSTORE POP JUMP JUMPDEST PUSH0 PUSH2 0xB41 PUSH1 0x15 DUP4 PUSH2 0xA01 JUMP JUMPDEST SWAP2 POP PUSH2 0xB4C DUP3 PUSH2 0xB0D JUMP JUMPDEST PUSH1 0x20 DUP3 ADD SWAP1 POP SWAP2 SWAP1 POP JUMP JUMPDEST PUSH0 PUSH1 0x20 DUP3 ADD SWAP1 POP DUP2 DUP2 SUB PUSH0 DUP4 ADD MSTORE PUSH2 0xB6E DUP2 PUSH2 0xB35 JUMP JUMPDEST SWAP1 POP SWAP2 SWAP1 POP JUMP JUMPDEST PUSH0 PUSH2 0xB7F DUP3 PUSH2 0x7FC JUMP JUMPDEST SWAP2 POP PUSH32 0xFFFFFFFFFFFFFFFFFFFFFFFFFFFFFFFFFFFFFFFFFFFFFFFFFFFFFFFFFFFFFFFF DUP3 SUB PUSH2 0xBB1 JUMPI PUSH2 0xBB0 PUSH2 0xA9F JUMP JUMPDEST JUMPDEST PUSH1 0x1 DUP3 ADD SWAP1 POP SWAP2 SWAP1 POP JUMP JUMPDEST PUSH32 0x4F6E6C79207468652062757965722063616E20706572666F726D207468697320 PUSH0 DUP3 ADD MSTORE PUSH32 0x616374696F6E2E00000000000000000000000000000000000000000000000000 PUSH1 0x20 DUP3 ADD MSTORE POP JUMP JUMPDEST PUSH0 PUSH2 0xC16 PUSH1 0x27 DUP4 PUSH2 0xA01 JUMP JUMPDEST SWAP2 POP PUSH2 0xC21 DUP3 PUSH2 0xBBC JUMP JUMPDEST PUSH1 0x40 DUP3 ADD SWAP1 POP SWAP2 SWAP1 POP JUMP JUMPDEST PUSH0 PUSH1 0x20 DUP3 ADD SWAP1 POP DUP2 DUP2 SUB PUSH0 DUP4 ADD MSTORE PUSH2 0xC43 DUP2 PUSH2 0xC0A JUMP JUMPDEST SWAP1 POP SWAP2 SWAP1 POP JUMP JUMPDEST PUSH32 0x44656C697665727920686173206E6F74206265656E20636F6E6669726D656420 PUSH0 DUP3 ADD MSTORE PUSH32 0x7965742E00000000000000000000000000000000000000000000000000000000 PUSH1 0x20 DUP3 ADD MSTORE POP JUMP JUMPDEST PUSH0 PUSH2 0xCA4 PUSH1 0x24 DUP4 PUSH2 0xA01 JUMP JUMPDEST SWAP2 POP PUSH2 0xCAF DUP3 PUSH2 0xC4A JUMP JUMPDEST PUSH1 0x40 DUP3 ADD SWAP1 POP SWAP2 SWAP1 POP JUMP JUMPDEST PUSH0 PUSH1 0x20 DUP3 ADD SWAP1 POP DUP2 DUP2 SUB PUSH0 DUP4 ADD MSTORE PUSH2 0xCD1 DUP2 PUSH2 0xC98 JUMP JUMPDEST SWAP1 POP SWAP2 SWAP1 POP JUMP JUMPDEST PUSH32 0x44656C69766572792068617320616C7265616479206265656E20636F6E666972 PUSH0 DUP3 ADD MSTORE PUSH32 0x6D65642E00000000000000000000000000000000000000000000000000000000 PUSH1 0x20 DUP3 ADD MSTORE POP JUMP JUMPDEST PUSH0 PUSH2 0xD32 PUSH1 0x24 DUP4 PUSH2 0xA01 JUMP JUMPDEST SWAP2 POP PUSH2 0xD3D DUP3 PUSH2 0xCD8 JUMP JUMPDEST PUSH1 0x40 DUP3 ADD SWAP1 POP SWAP2 SWAP1 POP JUMP JUMPDEST PUSH0 PUSH1 0x20 DUP3 ADD SWAP1 POP DUP2 DUP2 SUB PUSH0 DUP4 ADD MSTORE PUSH2 0xD5F DUP2 PUSH2 0xD26 JUMP JUMPDEST SWAP1 POP SWAP2 SWAP1 POP JUMP INVALID LOG2 PUSH5 0x6970667358 0x22 SLT KECCAK256 PUSH15 0xFA7CC37BD0B4CC2ED8F0F03AE52E6A CALLDATALOAD GASPRICE 0xA9 0xB7 COINBASE 0xF7 0xAA PUSH24 0x432F973529EA34DC64736F6C634300081A00330000000000 "
				},
				"gasEstimates": {
					"creation": {
						"codeDepositCost": "696800",
						"executionCost": "726",
						"totalCost": "697526"
					},
					"external": {
						"confirmDelivery(uint256)": "infinite",
						"createPotatoListing(uint256,uint256,uint256)": "infinite",
						"disputeDelivery(uint256)": "5210",
						"orderCount()": "2426",
						"orders(uint256)": "infinite",
						"placeOrder(uint256,uint256)": "infinite",
						"potatoListingCount()": "2448",
						"potatoListings(uint256)": "infinite"
					}
				},
				"methodIdentifiers": {
					"confirmDelivery(uint256)": "fd84cb97",
					"createPotatoListing(uint256,uint256,uint256)": "f5c529a7",
					"disputeDelivery(uint256)": "adcb9f04",
					"orderCount()": "2453ffa8",
					"orders(uint256)": "a85c38ef",
					"placeOrder(uint256,uint256)": "843f61e2",
					"potatoListingCount()": "691d5a01",
					"potatoListings(uint256)": "99c6713b"
				}
			},
			"storageLayout": {
				"storage": [
					{
						"astId": 15,
						"contract": "transport.sol:PotatoTransport",
						"label": "potatoListings",
						"offset": 0,
						"slot": "0",
						"type": "t_mapping(t_uint256,t_struct(PotatoListing)10_storage)"
					},
					{
						"astId": 17,
						"contract": "transport.sol:PotatoTransport",
						"label": "potatoListingCount",
						"offset": 0,
						"slot": "1",
						"type": "t_uint256"
					},
					{
						"astId": 33,
						"contract": "transport.sol:PotatoTransport",
						"label": "orders",
						"offset": 0,
						"slot": "2",
						"type": "t_mapping(t_uint256,t_struct(Order)28_storage)"
					},
					{
						"astId": 35,
						"contract": "transport.sol:PotatoTransport",
						"label": "orderCount",
						"offset": 0,
						"slot": "3",
						"type": "t_uint256"
					}
				],
				"types": {
					"t_address": {
						"encoding": "inplace",
						"label": "address",
						"numberOfBytes": "20"
					},
					"t_bool": {
						"encoding": "inplace",
						"label": "bool",
						"numberOfBytes": "1"
					},
					"t_mapping(t_uint256,t_struct(Order)28_storage)": {
						"encoding": "mapping",
						"key": "t_uint256",
						"label": "mapping(uint256 => struct PotatoTransport.Order)",
						"numberOfBytes": "32",
						"value": "t_struct(Order)28_storage"
					},
					"t_mapping(t_uint256,t_struct(PotatoListing)10_storage)": {
						"encoding": "mapping",
						"key": "t_uint256",
						"label": "mapping(uint256 => struct PotatoTransport.PotatoListing)",
						"numberOfBytes": "32",
						"value": "t_struct(PotatoListing)10_storage"
					},
					"t_struct(Order)28_storage": {
						"encoding": "inplace",
						"label": "struct PotatoTransport.Order",
						"members": [
							{
								"astId": 19,
								"contract": "transport.sol:PotatoTransport",
								"label": "buyer",
								"offset": 0,
								"slot": "0",
								"type": "t_address"
							},
							{
								"astId": 21,
								"contract": "transport.sol:PotatoTransport",
								"label": "potatoListingId",
								"offset": 0,
								"slot": "1",
								"type": "t_uint256"
							},
							{
								"astId": 23,
								"contract": "transport.sol:PotatoTransport",
								"label": "quantity",
								"offset": 0,
								"slot": "2",
								"type": "t_uint256"
							},
							{
								"astId": 25,
								"contract": "transport.sol:PotatoTransport",
								"label": "totalPrice",
								"offset": 0,
								"slot": "3",
								"type": "t_uint256"
							},
							{
								"astId": 27,
								"contract": "transport.sol:PotatoTransport",
								"label": "delivered",
								"offset": 0,
								"slot": "4",
								"type": "t_bool"
							}
						],
						"numberOfBytes": "160"
					},
					"t_struct(PotatoListing)10_storage": {
						"encoding": "inplace",
						"label": "struct PotatoTransport.PotatoListing",
						"members": [
							{
								"astId": 3,
								"contract": "transport.sol:PotatoTransport",
								"label": "farmer",
								"offset": 0,
								"slot": "0",
								"type": "t_address"
							},
							{
								"astId": 5,
								"contract": "transport.sol:PotatoTransport",
								"label": "quantity",
								"offset": 0,
								"slot": "1",
								"type": "t_uint256"
							},
							{
								"astId": 7,
								"contract": "transport.sol:PotatoTransport",
								"label": "price",
								"offset": 0,
								"slot": "2",
								"type": "t_uint256"
							},
							{
								"astId": 9,
								"contract": "transport.sol:PotatoTransport",
								"label": "deliveryTimeline",
								"offset": 0,
								"slot": "3",
								"type": "t_uint256"
							}
						],
						"numberOfBytes": "128"
					},
					"t_uint256": {
						"encoding": "inplace",
						"label": "uint256",
						"numberOfBytes": "32"
					}
				}
			},
			"userdoc": {
				"kind": "user",
				"methods": {},
				"version": 1
			}
		}
	}
}